:020000040800F2
:10000000680600204501000827100008830C00083E
:1000100025100008BD02000835120008000000008D
:100020000000000000000000000000002B1000088D
:10003000BF0200080000000029100008A1100008FD
:100040005F0100085F0100085F0100085F01000810
:100050005F0100085F0100085F0100085F01000800
:100060005F0100085F0100085F0100085F010008F0
:100070005F0100085F0100085F0100085F010008E0
:100080005F0100085F0100085F0100085F010008D0
:100090005F0100085F0100085F0100085F010008C0
:1000A0005F0100085F0100085F0100085F010008B0
:1000B0005F0100085F0100085F0100085F010008A0
:1000C0005F0100085F0100085F0100085F01000890
:1000D0005F0100085F0100085F0100085F01000880
:1000E0005F0100085F0100085F0100085F01000870
:1000F0005F0100085F0100085F0100085F01000860
:100100005F0100085F0100085F0100085F0100084F
:100110005F0100085F0100085F0100085F0100083F
:100120005F0100085F0100085F0100085F0100082F
:10013000DFF80CD000F03CF800480047B513000889
:10014000680600200648804706480047FEE7FEE7AD
:10015000FEE7FEE7FEE7FEE7FEE7FEE7FEE7FEE777
:10016000031100083101000840EA01039B0703D096
:1001700009E008C9121F08C0042AFAD203E011F8E6
:10018000013B00F8013B521EF9D27047D2B201E0A8
:1001900000F8012B491EFBD270470022F6E710B58C
:1001A00013460A4604461946FFF7F0FF204610BDE5
:1001B000064C074D06E0E06840F0010394E80700B4
:1001C00098471034AC42F6D3FFF7B6FF1C15000871
:1001D0003C15000810B5FF2000F022F855280AD081
:1001E0005521FF2000F04FF8FF2000F019F85528A6
:1001F00001D0012010BD002010BD00F05BBD70B526
:1002000014460D46064608E03046711C8EB200F0DA
:1002100007F8641E05F8010BA4B2002CF4D170BDE0
:1002200010B5044600F0E0FD200AA02101EB4000DB
:10023000C0B200F0BBFD00F005FEE0B200F0B6FD7C
:1002400000F000FE00F0D0FDA12000F0AFFD00F0B6
:10025000F9FD002000F06EFD044600F0DCFD2046B4
:1002600010BD000070B514460D46064607E000BFFD
:100270003046721C15F8011B96B200F004F8641E9B
:10028000A4B2F5D270BD70B50D46044600F0ACFDC9
:10029000A02000F08BFD00F0D5FDE0B200F086FD5F
:1002A00000F0D0FD284600F081FD00F0CBFD00F00D
:1002B000B2FDBDE870400A2000F004B8FEE77047C8
:1002C00072B6FEE770B5044600F014F90546601CEE
:1002D00002D004480078044400F00CF9401BA0420E
:1002E000FAD370BD000000202DE9F84FDFF8C89167
:1002F0000024A9F1040B23460F2709F1040AABF1EE
:10030000040ED1E00125A54006EA0502AA4276D1F5
:10031000DFF8A8C14E68A6EB0C0866452BD00DDCB3
:10032000032E34D005DC36B3012E19D0022E2FD186
:100330001BE0112E16D0122E2AD119E0B8F5881F15
:1003400019D006DCB8F5803F15D0B8F5801F1FD155
:1003500011E0B8F5001F0ED0B8F5041F18D10AE05F
:10036000CB6815E0CB681B1D12E0CB6808330FE0AB
:10037000CB680C330CE08B682BB1012B4FF00803DA
:1003800003D0456104E0042302E0056100E000239E
:10039000FF2A01D8064601E000F104064FEA840571
:1003A00001D9A5F12005D6F8008007FA05FC28EA56
:1003B0000C0803FA05F548EA0508C6F800804D6800
:1003C000ED0070D53E4DAE6946F00106AE61AD69F7
:1003D00024F0030605F0010500953A4D06EB050CE7
:1003E000DCF80850A607360F07FA06F825EA0805D4
:1003F000DFF8D480404503D14FF0000825E052E0FB
:10040000DFF8C880404502D14FF001081DE0DFF859
:10041000C080404502D14FF0020816E0DFF8B480FA
:10042000404502D14FF003080FE0DFF8AC804045B3
:1004300002D14FF0040808E0DFF8A080404502D167
:100440004FF0050801E04FF0060808FA06F848EA00
:100450000508CCF808804D68D9F80060ED024D46DB
:1004600001D5164300E096432E604D68DAF800602F
:10047000AD02554601D5164300E096432E604D6807
:10048000DBF80060AD035D4601D5164300E09643FE
:100490002E604D68DEF80060ED03754601D5164309
:1004A00000E096432E60641C0A681646E2407FF422
:1004B00029AFBDE8F88F00000804014000001110CA
:1004C000001002400000014000080140000C014003
:1004D000001001400014014000180140001C0140C0
:1004E0008068084000D0012070470AB10161704760
:1004F0000904FBE701488068704700000000002005
:100500000248816802781144816070470000002031
:10051000074810B5016841F010010160032000F0A8
:1005200067F80F2000F006F800F024F8002010BD56
:100530000020024070B50D4D04464FF47A712878C2
:10054000B1FBF0F00A490968B1FBF0F000F0CEFA17
:1005500048B9102C07D200222146501E00F028F87E
:1005600000206C6070BD012070BD00000000002004
:100570000C0000200C4808B5816941F0010181613F
:10058000816901F001010091C16941F08051C161AF
:10059000C06900F0805000900448416821F0E0619B
:1005A00041F00071416008BD0010024000000140B0
:1005B000F0B40E4B1B680C46C3F30223C3F10705CE
:1005C000042D00D90425191D072901D2002300E0BC
:1005D000DB1E012606FA05F1491E214099409E4086
:1005E000761E16403143F0BC00F036BE0CED00E044
:1005F000064900F0070208684FF6FF03184040EA7A
:100600000220034A10430860704700000CED00E030
:100610000000FA052DE9F0470F46050061D0434E72
:10062000306800F00700B84209D2306820F00700B7
:1006300038433060306800F00700B84251D1286874
:100640003B4C810712D5400703D5606840F4E06059
:1006500060602878000703D5606840F460506060EF
:100660006068A96820F0F000084360602878C0073F
:1006700028D06868012810D02168022810D0890786
:1006800000292EDA616821F0030101436160FFF760
:1006900031FF804641F288390DE021688903EFE798
:1006A0008901EDE7FFF726FFA0EB0801494502D9D4
:1006B0000320BDE8F0876068696800F00C00B0EBCB
:1006C000810FEFD1306800F00700B8420BD93068D5
:1006D00020F0070038433060306800F00700B8426F
:1006E00001D00120E5E72878400705D56068E96872
:1006F00020F4E060084360602878000706D5606851
:10070000296920F4605040EAC100606000F038F8C8
:100710006168084AC1F30311515CC840064908608A
:1007200006480068FFF706FF0020C2E700200240ED
:1007300000100240021500080C00002004000020F8
:100740000448054900684968044AC1F30221515C24
:10075000C84070470C00002000100240121500082D
:100760000448054900684968044AC1F3C221515C44
:10077000C84070470C00002000100240121500080D
:100780000E4A51680E4801F00C03042B11D0082BBF
:100790000FD10C48C1F38343C903C05C0AD551682B
:1007A000084AC1F34041921E515C054A5043B0FBD8
:1007B000F1F07047044948437047000000100240C0
:1007C00000127A00F214000800093D002DE9F84FEC
:1007D000040070D02078C04DC00749D06868C0F3CD
:1007E0008100012807D06868C0F38100022809D180
:1007F0006868C00306D52868800339D5606800287A
:10080000E7D035E06068B0F5803F0BD010B1B0F5AF
:10081000A02F11D0286820F480302860286820F4A8
:10082000802002E0286840F480302860606890B141
:10083000FFF760FE06460AE0286840F48020286042
:10084000F0E700BFFFF756FE801B642873D82868C6
:100850008003F7D50CE0FFF74DFE064605E000BF2C
:10086000FFF748FE801B6428F0D828688003F7D47F
:1008700020789A4E80074FF001094FF0000839D5D3
:10088000686810F00C0F07D06868C0F38100022878
:1008900009D16868C00306D42868800714D5206988
:1008A000012808D110E02069B0B1C6F80090FFF728
:1008B00021FE074605E00AE1FFF71CFEC01B0228E7
:1008C000C4D828688007F7D52868616920F0F80047
:1008D00040EAC10028600DE0C6F80080FFF70AFE7C
:1008E000074604E0FFF706FEC01B022823D828684D
:1008F0008007F7D4207800072CD57948A169D9B1B1
:10090000C0F80090FFF7F6FD074604E0FFF7F2FDA0
:10091000C01B02280FD8686A8007F7D571484FF4CA
:10092000FA510068B0FBF1F0009000BF0098411E42
:100930000091FAD20EE080E0C0F80080FFF7DAFD07
:10094000074604E0FFF7D6FDC01B022875D8686A89
:100950008007F7D42078400760D5E8690027C000F9
:1009600008D4E86940F08050E861E869012700F0A8
:10097000805000905C480168C90513D40168834623
:1009800041F480710160FFF7B5FD824606E000BFCB
:10099000FFF7B0FDA0EB0A0064284ED8DBF800009A
:1009A000C005F5D5E06801280AD008B1052813D0A4
:1009B000286A20F001002862286A20F0040002E082
:1009C000286A40F001002862E06841F2883B98B153
:1009D000FFF790FD82460BE0286A40F00400286291
:1009E000EEE700BFFFF786FDA0EB0A0159455AD894
:1009F000286A8007F6D50CE0FFF77CFD824605E00B
:100A0000FFF778FDA0EB0A0159454CD8286A80070A
:100A1000F6D41FB1E86920F08050E861E06988B33E
:100A20006968C1F38101022944D00228C6F86080B8
:100A300004D0FFF75FFD044638E034E0FFF75AFDCD
:100A4000074604E0FFF756FDC01B02282BD8286894
:100A50008001F7D4206AB0F5803F05D16868A168AD
:100A600020F4003008436860D4E90801084369684D
:100A700021F4741108436860C6F86090FFF73AFDEE
:100A8000044606E025E000BFFFF734FD001B022806
:100A900009D828688001F7D51BE000BFFFF72AFDC1
:100AA000001B022802D90320BDE8F88F28688001C6
:100AB000F4D40EE00128F7D06868226A00F480318F
:100AC000914204D1616A00F47010884201D0012083
:100AD000EAE70020E8E70000001002400000424280
:100AE000800442420C0000200070004010B5401EFF
:100AF000B0F1807F01D3012010BD4FF0E024606190
:100B00000F21601700F0A8FB0020A06107202061E2
:100B1000002010BD70B5040004D094F841000025F9
:100B200010B106E0012070BD84F84050204600F06E
:100B300023F8242084F841002068C16821F4005182
:100B4000C160204600F0DEFA2068016921F490417E
:100B500001612068416921F02A0141612068C16872
:100B600041F40051C1606564202084F8410084F89C
:100B700042006563002070BD30B585B0002400944C
:100B800001940294039400681449884224D11448C3
:100B9000816941F480418161816901F4804104915E
:100BA000816941F00401816180690E4D00F004000B
:100BB00004904FF4007000900220019003200390F5
:100BC00069462846FFF790FB2815CDE900046946E1
:100BD00028460294FFF788FB05B030BD003801407D
:100BE00000100240000801402DE9F843044690F847
:100BF00041001F4616460D46202802D00220BDE8BF
:100C0000F8837DB176B100206064212084F8410032
:100C1000FFF770FCA6848046E684A068B0F5805F8C
:100C200002D003E00120EAE7206910B12E4600253A
:100C30000EE000260CE08021204600F0BFFAA0B9AB
:100C4000AEB116F8010B21684860E08C401EE084CC
:100C5000E08C43464FF0000200970028EBD14FF0A4
:100C60004001204600F0AAFA30B10320C7E735F86A
:100C7000020BC0F30800E6E7202084F841000020C2
:100C8000BDE7FEE710B5002000F080F800F0EAF9BB
:100C9000002000F083F8022000F068FB012000F043
:100CA00075F8022000F062FBBDE81040002000F063
:100CB0006DB8000010B586B0002000900190029041
:100CC00003900E48816941F00801816180690C4CF4
:100CD00000F0080004900122C0212046FFF705FC27
:100CE000C020009011200190012002900320039069
:100CF00069462046FFF7F8FA06B010BD0010024022
:100D0000000C014010B5002000F040F800F0AAF9F6
:100D1000012000F043F8022000F028FB012000F041
:100D200035F8022000F022FBBDE81040002000F062
:100D30002DB800002DE9F0410646002400F076F9B8
:100D4000114F0025002000F021F8022000F00EFBDA
:100D5000012000F01BF86006040E80213846FFF7E2
:100D6000BFFB08B144F00104012000F0FFFA6D1C44
:100D7000EDB2082DE6D326B1FFF784FF2046BDE88B
:100D8000F081FFF7BFFFF9E7000C01400246402168
:100D90000148FFF7AABB0000000C01400246802179
:100DA0000148FFF7A2BB0000000C014070B50546EA
:100DB00000F058F90020FFF7E9FF0024E809FFF7E9
:100DC000EDFF022000F0D2FA0120FFF7DFFF022042
:100DD00000F0CCFA0020FFF7D9FF6806641C050E6E
:100DE000E4B2082CEAD370BD10B500F03BF9012045
:100DF000FFF7D4FF0120FFF7C9FF042000F0B6FA87
:100E00000020FFF7CBFF042000F0B0FABDE810404F
:100E10000020FFF7BBBF10B500F024F90020FFF75A
:100E2000B5FF0020FFF7BAFF042000F09FFA012071
:100E3000FFF7ACFF0120FFF7B1FFBDE81040042031
:100E400000F094BA70B500F0F1F80120FFF7A6FFAA
:100E5000012000F08BFA0120FFF798FF012000F03D
:100E600085FA0A4D07E0641CE4B2C82C03D9FFF7E9
:100E7000D2FF012070BD80212846FFF731FB0028FA
:100E8000F1D1FFF783FF002070BD0000000C01408E
:100E900070B51E4D002410212846FFF721FB60B9D4
:100EA0001420FFF70FFA10212846FFF719FB00283E
:100EB000F9D01420FFF706FA012408212846FFF78D
:100EC0000FFB60B91420FFF7FDF908212846FFF752
:100ED00007FB0028F9D01420FFF7F4F902240C4D89
:100EE00001212846FFF7FCFA01280CD11420FFF756
:100EF000E9F901212846FFF7F3FA0128F9D0142077
:100F0000FFF7E0F90324204670BD000000180140FF
:100F1000000801402DE9F04385B000242F480094DB
:100F2000019402940394816941F0400181618169D7
:100F300001F040010491816941F0040181618169FE
:100F400001F004010491816941F008018161806927
:100F5000DFF88C8000F00800049000222021404639
:100F6000FFF7C3FADFF87C90002220214846FFF704
:100F7000BCFA0122C0214846FFF7B7FA1820012524
:100F80008DE8310069464046FFF7AEF9202702267A
:100F900000970396CDE9015469464046FFF7A4F94E
:100FA000CDE90054694610480296FFF79DF9009775
:100FB0000396CDE9015469464846FFF795F9C020EC
:100FC00000901120CDE901050320039069464846B1
:100FD000FFF78AF905B0BDE8F08300000010024079
:100FE00000180140000C0140000801400C4810B5F9
:100FF0000A4901604FF4E1314160002181600C2217
:10100000C160C0E904128161C161FFF783FD00285E
:1010100003D0BDE81040FFF753B910BD00380140C0
:101020001C000020FEE7FEE77047704700B585B062
:101030000020019003900948816941F00801816115
:101040008069694600F0080004908020009001202B
:1010500002900348FFF748F905B000BD00100240B8
:10106000000C01400C4800B5816985B041F00801D1
:1010700081618069694600F008000490802000903A
:101080001120019001200290032003900348FFF7F4
:101090002BF905B000BD000000100240000C01401B
:1010A000FFF72EBA30B58FB028216846FFF775F8E4
:1010B00014210AA8FFF771F801210804CDE90010F6
:1010C0000024029402250491CDE907504FF4E0106A
:1010D00009906846FFF77AFB08B172B6FEE70F2069
:1010E000CDE90A054FF48060CDE90C4002210AA841
:1010F0000E94FFF78FFA002801D072B6FEE70FB00A
:1011000030BD704770B5044600680169E26821F49B
:101110004051114301612169A06808436169084396
:101120002168CA6841F20C639A430243CA6020688E
:101130004169A26921F44071114341611E4920684F
:10114000884202D1FFF70CFB01E0FFF7F9FA00EB50
:10115000C00101EB0012606864218000B2FBF0F373
:10116000B3FBF1F36FF018067343B2FBF0F5B2FB7B
:10117000F0F605EB8305322303EB0515B5FBF1F51E
:10118000B6FBF1F605F0F00505EB0615B2FBF0F63F
:10119000B2FBF0F0B0FBF1F06FF01802504306EB39
:1011A000800003EB0010B0FBF1F0216800F00F00AD
:1011B0002844886070BD0000003801402DE9F041EE
:1011C000984617460E460446069D27E0681C25D023
:1011D0002DB1FFF78FF9A0EB0800A8421ED92068B7
:1011E0000C3050E8001F21F4D07140E80012002AB2
:1011F000F5D12068143050E8001F21F0010140E8CB
:101200000012002AF5D1202084F8410084F8420021
:10121000002084F840000320BDE8F08120680068C9
:1012200036EA000004D00020B842CFD00020F3E717
:101230000120F9E7FEE700000FB4054B10B503A944
:10124000044A029800F027F810BC5DF814FB000077
:101250009D130008100000200907090E002804DB78
:1012600000F1E02080F80014704700F00F0000F15A
:10127000E02080F8141D704702E008C8121F08C162
:10128000002AFAD170477047002001E001C1121F07
:10129000002AFBD170472DE9F84F994692468846BF
:1012A0000546002706E025280AD051464A469047C1
:1012B0006D1C7F1C28780028F5D13846BDE8F88FD2
:1012C000002315F8011F18462E2915D115F8011F06
:1012D00004232A290DD06FF02F022978A1F13004C0
:1012E000092C09D800EB800002EB400008446D1C7B
:1012F000F3E758F8040B6D1C2A78002ADDD0632A26
:1013000007D0732A0FD0104651464A4690477F1C9B
:101310002AE018F8042B8DF8002000218DF8011028
:101320006E46012103E058F8046B4FF0FF315A0775
:101330004FF0000401D409E0641C84420BDA8C42B3
:10134000FADB325D002AF7D105E0641C8C42FCDB3D
:10135000305D0028F9D1274404E016F8010B51460E
:101360004A469047641EF8D26D1CA3E770B54FF053
:10137000E02300215C6900EBC0009A69C500986910
:101380009042FCD002D2A2EB000202E0A4EB0006E5
:10139000324411440246A942F1D370BD13B54FF651
:1013A000FF73012269460248FFF71EFC00981CBD2E
:1013B0001C00002086B0FFF7ABF8FFF773FEFFF7C5
:1013C000A9FDFFF713FEFEF718FF4FF4FA7405E0CE
:1013D00018A0FFF731FF2046FEF774FFFEF7FAFE74
:1013E0000028F5D119A0FFF727FF14221BA168469A
:1013F000FEF7BAFE1224204600F044F84FEA00053A
:10140000FFF746FD01280BD00228F9D122462946D4
:101410000020FEF7F4FE294615A0FFF70DFFEFE7C9
:10142000224669460020FEF71DFF12A0FFF704FFC9
:10143000E6E70000415432344330322043686563AC
:101440006B204661696C65640A00000041543234C7
:101450004330322052656164790A000041424344BE
:10146000203132333420353637382039300000000F
:101470002573000066696E69736820777269746508
:101480000A000000F0B50B30154D20F007010024D4
:10149000144A0FE003688B420BD38B4205D95E1AC6
:1014A00043184768C3E9006700E04368136002C05F
:1014B00004E0021D10680028ECD12046002802D16B
:1014C000286808B10020F0BD064A07481060074AA6
:1014D000121A22F00702C0E9002401202860D7E791
:1014E00018000020140000206C000020680200207A
:1014F000010202030405060708090A0B0C0D0E0F72
:1015000010100000000000000000010203040607A4
:101510000809000000000102030400003C15000857
:10152000000000201C000000781200085815000878
:101530001C0000204C06000088120008010000007A
:1015400010000000000000000024F4000000000073
:08155000000000000000000093
:0400000508000131BD
:00000001FF
