:020000040800F2
:10000000D804002045010008E7180008731700080D
:10001000E51800085302000849230008000000000A
:100020000000000000000000000000001520000893
:10003000D302000800000000871C00088920000887
:100040005F0100085F0100085F0100085F01000810
:100050005F0100085F0100085F0100085F01000800
:100060005F0100085F0100085F0100085F010008F0
:100070005F0100085F0100085F0100085F010008E0
:100080005F0100085F0100085F0100085F010008D0
:100090005F0100085F0100085F0100085F010008C0
:1000A0005F0100085F0100085F0100085F010008B0
:1000B0005F0100085F0100085F0100085F010008A0
:1000C0005F0100085F0100085F010008C51E00080D
:1000D0005F0100083D2300085F0100085F01000880
:1000E0005F0100085F0100085F0100085F01000870
:1000F0005F0100085F0100085F0100085F01000860
:100100005F0100085F0100085F0100085F0100084F
:100110005F0100085F0100085F0100085F0100083F
:100120005F0100085F0100085F0100085F0100082F
:10013000DFF80CD000F06CF800480047B928000840
:10014000D80400200648804706480047FEE7FEE73F
:10015000FEE7FEE7FEE7FEE7FEE7FEE7FEE7FEE777
:10016000EB20000831010008202A04DB203A21FAA4
:1001700002F00021704721FA02F3D040C2F12002C0
:100180009140084319467047D2B201E000F8012BB4
:10019000491EFBD270470022F6E710B513460A4607
:1001A00004461946FFF7F0FF204610BD2DE9F05F29
:1001B0000546002092469B468846064681464024D6
:1001C0001BE02846414647462246FFF7CDFF5346EF
:1001D0005A46C01A914110D311461846224600F0E3
:1001E00029F82D1A67EB01084F462246012000210D
:1001F00000F020F817EB00094E41201EA4F1010485
:10020000DFDC484631462A464346BDE8F09F000001
:10021000064C074D06E0E06840F0010394E8070053
:1002200098471034AC42F6D3FFF786FF0C2900083C
:100230002C290008202A04DB203A00FA02F10020D1
:1002400070479140C2F1200320FA03F31943904014
:100250007047FEE72DE9F0410E460746154604219A
:10026000052000F02AF80021012002F06FF880211B
:100270000A2001F0D0FE002405E0395D092002F0DB
:1002800065F8641CE4B2B442F7D30321012002F004
:100290005DF8FF24052001F0E9FD641E14F0FF0461
:1002A00001D04007F6D5222001F0E0FD2870212082
:1002B00001F0DCFD6870BDE8F08170B50C460546C4
:1002C00001F0D4FD20EA04012846BDE8704002F0A8
:1002D0003DB8704772B6FEE710B590F821100022C5
:1002E000022905D00421816380F82020012010BD5F
:1002F00001680B6823F00E030B6001680B6823F0A4
:1003000001030B6090F84030C46B012101FA03F344
:10031000636080F8211080F82020104610BD000096
:100320002DE9F05F90F821100024022903D0042168
:100330008163012485E001680A6822F00E020A60E8
:1003400001680A6822F001020A603F4E3E4FB21572
:10035000DFF8F4C0DFF8F090DFF8ECA0DFF8E8B0E9
:10036000DFF8E4E00168783F13011502ACF1640C9A
:10037000A9F15009AAF13C0AABF1280BAEF1140E19
:100380004FF48018B14227D9B9420ED0614512D03E
:1003900049451DD0514518D0594518D0714501D156
:1003A000424615E0294EB14201D1012210E0274E0C
:1003B0001436B14201D110220AE0244E2836B1424F
:1003C00006D0224A3C32914201D11A4600E02A4628
:1003D0001E49091F0A602BE0B94213D0614517D0AE
:1003E000494522D051451DD059451DD0714501D1F7
:1003F00042461AE0B14202D14FF0807215E0134E2E
:10040000B14201D1012210E0104E1436B14201D1A7
:1004100010220AE00D4E2836B14206D00B4A3C327B
:10042000914201D11A4600E02A46074980394A60C4
:10043000012180F82110002180F82010416B01B1CA
:1004400088472046BDE8F09F800002400804024033
:1004500070B5044600F010F90546601C02D004484F
:100460000078044400F008F9401BA042FAD370BDA4
:10047000000000202DE9F84FDFF8C8910024A9F111
:10048000040B23460F2709F1040AABF1040ED1E057
:100490000125A54006EA0502AA4276D1DFF8A8C1E7
:1004A0004E68A6EB0C0866452BD00DDC032E34D02D
:1004B00005DC36B3012E19D0022E2FD11BE0112EF0
:1004C00016D0122E2AD119E0B8F5881F19D006DCF3
:1004D000B8F5803F15D0B8F5801F1FD111E0B8F5F1
:1004E000001F0ED0B8F5041F18D10AE0CB6815E044
:1004F000CB681B1D12E0CB6808330FE0CB680C33D0
:100500000CE08B682BB1012B4FF0080303D0456141
:1005100004E0042302E0056100E00023FF2A01D883
:10052000064601E000F104064FEA840501D9A5F171
:100530002005D6F8008007FA05FC28EA0C0803FA23
:1005400005F548EA0508C6F800804D68ED0070D54D
:100550003E4DAE6946F00106AE61AD6924F003067A
:1005600005F0010500953A4D06EB050CDCF8085046
:10057000A607360F07FA06F825EA0805DFF8D48043
:10058000404503D14FF0000825E052E0DFF8C88075
:10059000404502D14FF001081DE0DFF8C080404522
:1005A00002D14FF0020816E0DFF8B480404502D1D6
:1005B0004FF003080FE0DFF8AC80404502D14FF068
:1005C000040808E0DFF8A080404502D14FF005089C
:1005D00001E04FF0060808FA06F848EA0508CCF8EA
:1005E00008804D68D9F80060ED024D4601D51643EC
:1005F00000E096432E604D68DAF80060AD02554683
:1006000001D5164300E096432E604D68DBF800608C
:10061000AD035D4601D5164300E096432E604D685C
:10062000DEF80060ED03754601D5164300E0964301
:100630002E60641C0A681646E2407FF429AFBDE8CC
:10064000F88F000008040140000011100010024063
:100650000000014000080140000C01400010014072
:100660000014014000180140001C01400AB1016162
:1006700070470904FBE700000148806870470000EC
:1006800000000020024881680278114481607047B0
:1006900000000020074810B5016841F0100101601A
:1006A000032000F075F80F2000F006F800F024F8A1
:1006B000002010BD0020024070B50D4D04464FF4DF
:1006C0007A712878B1FBF0F00A490968B1FBF0F0C3
:1006D00000F041FE48B9102C07D200222146501EDE
:1006E00000F036F800206C6070BD012070BD000085
:1006F000000000200C0000200C4808B5816941F082
:1007000001018161816901F001010091C16941F03C
:100710008051C161C06900F0805000900448416878
:1007200021F0E06141F00071416008BD001002401D
:1007300000000140002809DB00F01F020121914068
:100740004009800000F1E020C0F80011704700006F
:10075000F0B40E4B1B680C46C3F30223C3F107052C
:10076000042D00D90425191D072901D2002300E01A
:10077000DB1E012606FA05F1491E214099409E40E4
:10078000761E16403143F0BC01F014BE0CED00E0C3
:10079000064900F0070208684FF6FF03184040EAD8
:1007A0000220034A10430860704700000CED00E08F
:1007B0000000FA052DE9F0470F46050061D0434ED1
:1007C000306800F00700B84209D2306820F0070016
:1007D00038433060306800F00700B84251D12868D3
:1007E0003B4C810712D5400703D5606840F4E060B8
:1007F00060602878000703D5606840F4605060604E
:100800006068A96820F0F000084360602878C0079D
:1008100028D06868012810D02168022810D08907E4
:1008200000292EDA616821F0030101436160FFF7BE
:1008300023FF804641F288390DE021688903EFE704
:100840008901EDE7FFF718FFA0EB0801494502D940
:100850000320BDE8F0876068696800F00C00B0EB29
:10086000810FEFD1306800F00700B8420BD9306833
:1008700020F0070038433060306800F00700B842CD
:1008800001D00120E5E72878400705D56068E968D0
:1008900020F4E060084360602878000706D56068AF
:1008A000296920F4605040EAC100606000F038F827
:1008B0006168084AC1F30311515CC84006490860E9
:1008C00006480068FFF7F8FE0020C2E7002002405B
:1008D00000100240F42800080C0000200400002052
:1008E0000448054900684968044AC1F30221515C83
:1008F000C84070470C000020001002400429000886
:100900000448054900684968044AC1F3C221515CA2
:10091000C84070470C000020001002400429000865
:100920000E4A51680E4801F00C03042B11D0082B1D
:100930000FD10C48C1F38343C903C05C0AD5516889
:10094000084AC1F34041921E515C054A5043B0FB36
:10095000F1F070470449484370470000001002401E
:1009600000127A00E428000800093D002DE9F84F44
:10097000040070D02078C04DC00749D06868C0F32B
:100980008100012807D06868C0F38100022809D1DE
:100990006868C00306D52868800339D560680028D8
:1009A000E7D035E06068B0F5803F0BD010B1B0F50E
:1009B000A02F11D0286820F480302860286820F407
:1009C000802002E0286840F480302860606890B1A0
:1009D000FFF752FE06460AE0286840F480202860AF
:1009E000F0E700BFFFF748FE801B642873D8286833
:1009F0008003F7D50CE0FFF73FFE064605E000BF99
:100A0000FFF73AFE801B6428F0D828688003F7D4EB
:100A100020789A4E80074FF001094FF0000839D531
:100A2000686810F00C0F07D06868C0F381000228D6
:100A300009D16868C00306D42868800714D52069E6
:100A4000012808D110E02069B0B1C6F80090FFF786
:100A500013FE074605E00AE1FFF70EFEC01B022861
:100A6000C4D828688007F7D52868616920F0F800A5
:100A700040EAC10028600DE0C6F80080FFF7FCFDE9
:100A8000074604E0FFF7F8FDC01B022823D82868BA
:100A90008007F7D4207800072CD57948A169D9B10F
:100AA000C0F80090FFF7E8FD074604E0FFF7E4FD1B
:100AB000C01B02280FD8686A8007F7D571484FF429
:100AC000FA510068B0FBF1F0009000BF0098411EA1
:100AD0000091FAD20EE080E0C0F80080FFF7CCFD74
:100AE000074604E0FFF7C8FDC01B022875D8686AF6
:100AF0008007F7D42078400760D5E8690027C00058
:100B000008D4E86940F08050E861E869012700F006
:100B1000805000905C480168C90513D40168834681
:100B200041F480710160FFF7A7FD824606E000BF37
:100B3000FFF7A2FDA0EB0A0064284ED8DBF8000006
:100B4000C005F5D5E06801280AD008B1052813D002
:100B5000286A20F001002862286A20F0040002E0E0
:100B6000286A40F001002862E06841F2883B98B1B1
:100B7000FFF782FD82460BE0286A40F004002862FD
:100B8000EEE700BFFFF778FDA0EB0A0159455AD800
:100B9000286A8007F6D50CE0FFF76EFD824605E077
:100BA000FFF76AFDA0EB0A0159454CD8286A800777
:100BB000F6D41FB1E86920F08050E861E06988B39D
:100BC0006968C1F38101022944D00228C6F8608017
:100BD00004D0FFF751FD044638E034E0FFF74CFD48
:100BE000074604E0FFF748FDC01B02282BD8286801
:100BF0008001F7D4206AB0F5803F05D16868A1680C
:100C000020F4003008436860D4E9080108436968AB
:100C100021F4741108436860C6F86090FFF72CFD5A
:100C2000044606E025E000BFFFF726FD001B022872
:100C300009D828688001F7D51BE000BFFFF71CFD2D
:100C4000001B022802D90320BDE8F88F2868800124
:100C5000F4D40EE00128F7D06868226A00F48031ED
:100C6000914204D1616A00F47010884201D00120E1
:100C7000EAE70020E8E700000010024000004242DE
:100C8000800442420C0000200070004070470000C9
:100C900038B50446006842688168C9434B0606D5EA
:100CA000CB0704D1D3435B0601D4216C05E08B074D
:100CB00008D4D3431B0605D4616C01B02046BDE8BF
:100CC000304008478B0601D54B0646D4D3439B06DC
:100CD00043D44B060AD494F85130032B3ED0636DB5
:100CE00043F004036365C36883680093890609D4ED
:100CF000616D41F00101616581680091016821F039
:100D000040010160606D002827D02068416821F013
:100D1000E0014160012084F85100900722D0206852
:100D2000416821F003014160104DE06C40B1456322
:100D3000E06CFFF7F5FA18B1606D40F040006065B7
:100D4000A06C002809D04563A06CFFF7E9FA0028E1
:100D500003D0606D40F04000606538BDC1688068B8
:100D6000009038BD2046FFF791FF38BDD11E000826
:100D700070B5040009D0606A002540B12561656145
:100D8000A56294F8510040B10CE0012070BD60688C
:100D9000B0F5827FF4D0E561F2E784F85050204648
:100DA00000F040F8022084F851002068016821F02A
:100DB00040010160A088218900F4827001F404419F
:100DC0000843A18901F400610843217C01F002017C
:100DD0000843217D01F001010843218B01F40071DA
:100DE0000843217F01F03801084394F8201001F0F6
:100DF00080010843218D01F40051084321680860F7
:100E0000A069042101EA1040216848602068C16996
:100E100021F40061C1616565012084F85100002062
:100E200070BD000030B585B0002400940194029498
:100E300003940068184988422BD11848816941F40D
:100E400080518161816901F480510491816941F08F
:100E5000040181618069124D00F004000490A0201B
:100E60000090022001900320039069462846FFF776
:100E700001FB4020CDE90004694628460294FFF7B3
:100E8000F9FA002211462320FFF762FC2320FFF726
:100E900051FC05B030BD00000030014000100240A0
:100EA000000801402DE9F84F044690F8510098469B
:100EB00016460F460025012801D0022598E06068FB
:100EC0004FF0040BB0F5827F01D1A068F8B194F81F
:100ED0005000012826D04FF0010984F85090FFF708
:100EE000CBFB8246002F7FD0002E7DD084F851B0FE
:100EF00000206065A763A687E6872063A086E0865A
:100F000020646064A068B0F5004F0DD016E084F84E
:100F100051B013460A462046CDF8008000F024F96F
:100F2000BDE8F88F0220FBE72068016821F040014E
:100F300001602068016821F4804101602068016837
:100F4000490603D4016841F040010160E068D8B16E
:100F50003BE020688168C90709D0007BA16B08705D
:100F6000A06B401CA063E08F401EE0870CE0FFF701
:100F700083FBA0EB0A01414503D3B8F1FF3F03D047
:100F800006E0B8F1000F03D0E08F0028E1D11FE0A8
:100F900003252BE020688168C90709D0C068A16BD0
:100FA0000880A06B801CA063E08F401EE0870CE0EF
:100FB000FFF762FBA0EB0A01414503D3B8F1FF3F05
:100FC00003D0E5E7B8F1000FE2D0E08F0028E1D1CF
:100FD00052464146204600F083FF08B1202060655C
:100FE000606D00E000E008B1012501E084F8519057
:100FF000002084F85000284692E72DE9F84F044677
:1010000090F850000026984615468A4601280CD0D4
:10101000012784F85070FFF72FFB814694F85100A8
:10102000B346012804D002269AE00220BDE8F88FDA
:10103000BAF1000F6FD0002D6DD0032084F851005D
:10104000C4F854B0C4F830A0A586E586C4F838B01A
:10105000A4F83CB0A4F83EB0C4F844B0C4F840B022
:10106000A068B0F5004F09D12068016821F0400167
:1010700001602068016841F48041016020680168D6
:10108000490603D4016841F040010160E068B0F511
:10109000006F606803D058B3012D29D049E008B132
:1010A000012D1FD1206B21680088C86006E02068F0
:1010B0008168890709D5216B0988C160206B801C74
:1010C0002063E08E401EE0860CE0FFF7D5FAA0EB2F
:1010D0000901414503D3B8F1FF3F03D006E0B8F161
:1010E000000F03D0E08E0028E1D125E0032635E093
:1010F000206B21680078087306E020688168890702
:101100000AD5216B09780173206B401C2063E08EA7
:10111000401EE0860DE01FE0FFF7AEFAA0EB0901EC
:10112000414503D3B8F1FF3F03D0DFE7B8F1000F2B
:10113000DCD0E08E0028E0D14A464146204600F04F
:10114000FDFE08B120206065A06818B92068C1685C
:1011500080680090606D08B1012601E084F851704C
:1011600084F850B0304661E72DE9FF4F81B0044666
:1011700090F8500000260E9F1D4693464FF001093F
:1011800001280FD04FF0010A84F850A0FFF774FA3D
:10119000804694F85100616801280DD0B1F5827F36
:1011A00008D103E0022005B0BDE8F08FA16809B9BD
:1011B000042801D00226C9E00298002865D0BBF1BE
:1011C000000FFBD0002DF9D094F85100042802D074
:1011D000052084F8510000206065C4F838B0E58728
:1011E000A58702992163E586A5862064606420684E
:1011F0000168490603D4016841F040010160E068DC
:10120000B0F5006F606803D0F0B3012D47D081E0E6
:1012100008B1012D3CD1206B21680088C860206B8B
:10122000801C2063E08E401EE08631E020688168EB
:1012300089070FD5E18E69B1B9F1010F0AD1216B90
:101240000988C160206B801C2063E08E401EE08610
:101250004FF0000920688168C9070CD0E18F51B1B7
:10126000C068A16B0880A06B801CA063E08F401E4B
:10127000E0874FF00109FFF7FFF9A0EB0800B84243
:1012800006D3781C04D001E009E05BE003265BE0B4
:10129000E08E0028CAD1E08F0028C7D140E0206B43
:1012A000216800780873206B401C2063E08E401E8C
:1012B000E0862FE02068816889070FD5E18E69B14B
:1012C000B9F1010F0AD1216B09780173206B401C21
:1012D0002063E08E401EE0864FF0000920688168A0
:1012E000C9070CD0E18F51B1C068A16B0870A06B29
:1012F000401CA063E08F401EE0874FF00109FFF71C
:10130000BBF9A0EB0800B84202D3781C02D0BAE7C0
:10131000002FB8D0E08E0028CCD1E08F0028C9D1B2
:1013200042463946204600F009FE18B10126202029
:1013300060650BE0A06818B92068C16880680090FB
:10134000606D08B1012601E084F851A0002084F806
:101350005000304627E710B5401EB0F1807F01D322
:10136000012010BD4FF0E02460610F21601701F0F3
:1013700021F80020A06107202061002010BD7047E7
:1013800070470000F8B5016804460868CA684B69F0
:1013900010F00F0F4FF0000559D003F0010602F4D2
:1013A0009077374365D0C10705D0D10503D5616C6F
:1013B00041F001016164410705D5D90703D0616C93
:1013C00041F002016164810705D5D90703D0616C42
:1013D00041F004016164010707D502F020013143A7
:1013E00003D0616C41F008016164616C00293AD05E
:1013F000800604D5900602D5204600F0A6FE20689F
:101400004069616CC0F38010090700D460B32046C6
:1014100000F074FE20684069400621D52068143031
:1014200050E8001F21F0400140E80012002AF5D1E9
:10143000E06BA8B16D494163E06BFEF771FF0028D6
:1014400011D0E06B416B01B0BDE8F0400847830666
:101450000FD593060DD52046BDE8F84000F075BEC7
:101460002046FFF78DFFF8BD2046FFF789FF656432
:10147000F8BD266B2023012E7CD1C6067AD5D60670
:1014800078D508684868009048694FF00206400621
:1014900040D5E16B086840680004000CE8D0A28DDC
:1014A0008242E5D9E085886920282DD020680C305B
:1014B00050E8001F21F4807140E80012002AF5D1A5
:1014C0002068143050E8001F21F0010140E80012AC
:1014D000002AF5D12068143050E8001F21F04001A7
:1014E00040E80012002AF5D184F8423025632068D4
:1014F0000C3050E8001F21F0100140E80012002AD3
:10150000F5D1E06BFEF7E8FE6663A08DE18D401A31
:1015100081B22AE0A08DE18D401A81B2E08D0028D1
:10152000A6D00029A4D022680C3252E8000F20F483
:10153000907042E80007002FF5D12068143050E881
:10154000002F22F0010240E80027002FF5D184F897
:101550004230256320680C3050E8002F22F0100242
:1015600040E80023002BF5D166632046FFF707FF14
:10157000F8BDFFE705062BD5150629D594F84100DF
:101580002128F5D1A068B0F5805F01D12069B0B104
:10159000206A411C2162216800784860E08C401E6E
:1015A0000004000CE084E3D12068C16821F08001D0
:1015B000C1602068C16841F04001C160D8E7206A7D
:1015C0000088C0F308004860206A801C2062E5E7BC
:1015D0004006CDD55006CBD5CA68204622F0400241
:1015E000CA6084F8413000F0C3F8C1E7ED2000087C
:1015F00070B5040004D094F84100002510B106E055
:10160000012070BD84F84050204600F023F82420CB
:1016100084F841002068C16821F40051C16020466F
:1016200000F0F4FD2068016921F490410161206817
:10163000416921F02A0141612068C16841F40051EB
:10164000C1606564202084F8410084F8420065632D
:10165000002070BD30B585B0002400940194029440
:1016600003940068184988422CD11848816941F4D4
:1016700080418161816901F480410491816941F077
:10168000040181618069124D00F0040004904FF460
:1016900000700090022001900320039069462846C4
:1016A000FEF7E8FE2815CDE90004694628460294B5
:1016B000FEF7E0FE002211462520FFF749F825201D
:1016C000FFF738F805B030BD003801400010024087
:1016D0000008014070472DE9F843044690F84100A6
:1016E0001F4616460D46202802D00220BDE8F8838A
:1016F0007DB176B100206064212084F84100FEF7BE
:10170000BBFFA6848046E684A068B0F5805F02D067
:1017100003E00120EAE7206910B12E4600250EE023
:1017200000260CE08021204600F0CCFDA0B9AEB12F
:1017300016F8010B21684860E08C401EE084E08CC4
:1017400043464FF0000200970028EBD14FF04001D4
:10175000204600F0B7FD30B10320C7E735F8020B93
:10176000C0F30800E6E7202084F841000020BDE730
:101770007047FEE72DE9F04F85B00025344800950D
:10178000019502950395816941F04001816181696C
:1017900001F040010491816941F004018161816996
:1017A00001F004010491816941F0100181618169B6
:1017B00001F010010491816941F0080181618069A3
:1017C000244F00F008000490002220213846FEF744
:1017D0004DFFDFF88490012210214846FEF746FFB6
:1017E000DFF878A0002220215046FEF73FFFDFF807
:1017F00070B0002220215846FEF738FF202601AAAB
:1018000001244FF00208009682E83001694638460C
:10181000FEF730FE1020CDE900040327CDE9024792
:1018200069464846FEF726FE01AA009682E8B00007
:1018300069465046FEF71EFE01AA009682E8300176
:1018400069465846FEF716FE05B0BDE8F08F000069
:101850000010024000180140000801400010014043
:10186000000C0140104810B50E4901604FF4827120
:10187000416000218160C1604FF400720161C0E9E4
:1018800005121022C0E90721416281620A21C1626A
:10189000FFF76EFA002803D0BDE81040FEF71ABD2E
:1018A00010BD000000300140280000200C4810B599
:1018B0000A4901604FF4E1314160002181600C224E
:1018C000C160C0E904128161C161FFF791FE002887
:1018D00003D0BDE81040FEF7FDBC10BD003801404C
:1018E00080000020FEE7FEE703211420FEF7E5BCA0
:1018F00010B5142000F0BAFA800705D10321BDE825
:101900001040142000F087BB10BD70B506460821BA
:1019100088B000240846FEF7D0FC00210D2000F01E
:1019200015FD80210E20FEF7C8FC93208DF80400E1
:1019300020208DF8050006A801AB00900222194670
:101940000C2000F040F805000DD1002101A8425CF8
:101950007254425C491C5440C9B20429F7D3405C1C
:10196000A04200D0022580210E2000F054FB08B0D8
:10197000284670BD30B587B08DF804008DF805108D
:10198000002001A9145C0D18401CC0B2AC700628E0
:10199000F8D300200C181A5C401CC0B22272062832
:1019A000F8D306A800900B460C220E2000F00BF88E
:1019B000040004D1082000F059FA000700D40224E2
:1019C00007B0204630BD2DE9FF5F00270225DDF876
:1019D00038A016468B468146B8460C2805D0B9F18A
:1019E0000E0F05D11227102001E077273020804606
:1019F00047F08001022000F0A9FC80210420FEF7BE
:101A00005CFC0021012000F0A1FC80210A2000F0F4
:101A100002FB002405E01BF80410092000F096FCEE
:101A2000641CB442F7D34946012000F08FFCB9F1A1
:101A30000C0F03D180210D2000F0EDFA4FF47A76DF
:101A4000042000F013FA0446761E04D0E00702D109
:101A500014EA080FF4D080210D20FEF72EFC36B1D9
:101A6000062000F003FA10F01B0F0CD00225802195
:101A70000C2000F0D0FA0021012000F067FC04B037
:101A80002846BDE8F09F00253C40E00700D0012536
:101A9000B9F10C0FEBD10A2000F0E8F904460C2054
:101AA00000F0E4F910F007004FEAC40101D0083952
:101AB0000144CAF8001024B1122C04D912240026C3
:101AC00003E00124FBE7002605E0092000F0CEF941
:101AD00003998855761CA642F7D3C8E730B587B07E
:101AE0000D4630218DF8041001AC8DF8050002215F
:101AF0002046A21CFEF7AEFB06A801AB0090042214
:101B000019460C20FFF75FFF10B90699902902D003
:101B1000022007B030BD0023E15CE9545B1CDBB25E
:101B2000102BF9D3F5E7000030B50D460446082127
:101B300087B00846FEF7C1FB07210D2000F006FC28
:101B40000321142000F067FA8DF804400EA000F085
:101B500021FC06A801AB0090012219460C20FFF7DA
:101B600032FF04460AA000F015FC14B906981028AC
:101B700003D0022407B0204630BD9DF80400287031
:101B80009DF805006870F5E76161610D0A000000CD
:101B90006262620D0A00000010B5214C0122202172
:101BA0002046FEF763FD0A2000F055FE00222021AA
:101BB0002046FEF75BFD3C20FEF74AFC0122202177
:101BC0002046FEF753FD4FF4FA7000F044FE0F215B
:101BD000012000F0BBFB0220FEF73AFC3D21112062
:101BE00000F0B4FB1E212D2000F0B0FB00212C20C2
:101BF00000F0ACFB8D212A2000F0A8FB3E212B2019
:101C000000F0A4FB4021152000F0A0FB8021332030
:101C1000FEF753FB4021152000F098FB002010BD7B
:101C20000010014010B588B093218DF80410702188
:101C30008DF8051000218DF80A1001AA5418435C94
:101C4000A370445C9DF80A30491C6340C9B28DF80A
:101C50000A300429F2D3072101A8D21DFEF7FAFAAF
:101C600008210846FEF729FB06A801AB00900922CF
:101C700019460C20FFF7A7FE10B90699182900D0C5
:101C8000022008B010BD704770B500242B495220C7
:101C9000FFF74AFF294DAD1E002868704DD102267E
:101CA0006E70281DFFF731FE6870002845D16E70F8
:101CB000281D00F0BDF9281DFFF7B4FF687000284B
:101CC0003BD12B1D6E701A1D0B216020FFF752FEB9
:101CD0006870E8B11AA000BF00F05CFB174B0B2145
:101CE0009B1C03F10A026120FFF744FE687088B173
:101CF0001AA000BF00F04EFB687800281DD16E705E
:101D00001D492878FFF7EAFE687028B11BA010E093
:101D10001FA0E1E725A0EDE72BA000F03BFB164D4F
:101D20002BA0295D00F036FB641CE4B2102CF7D325
:101D300016A0BDE8704000F02DBB70BD1200002061
:101D40005063644175746853746174652841292037
:101D50006661696C65640D0A0000000050636441AF
:101D60007574685374617465284229206661696CD2
:101D700065640D0A00000000C80000205063645232
:101D80006561642829206661696C65640D0A00003C
:101D900050636441757468537461746528412920E7
:101DA000737563636573730D0A00000050636441CB
:101DB0007574685374617465284229207375636370
:101DC0006573730D0A000000444154413A0000005D
:101DD000253032780000000010B5154C002210218B
:101DE0002046FEF743FCFF230422AA211148FFF7F7
:101DF00004F9012210212046FEF738FC3220FEF7BC
:101E000027FBFFF7C9FE0A20FEF722FBFFF7C4FEFF
:101E10000A20FEF71DFBFFF767FD0A20FEF718FBFF
:101E2000FFF766FDBDE8104003A000F0B3BA000064
:101E30000008014028000020524649442D4D4652DA
:101E40004335323220B3F5CABCBBAFCDEAB3C90DBE
:101E50000A46696E644361726420537461727469E6
:101E60006E67202E2E2E0D0A000000001CB50021EA
:101E70008DF800107E2101EA400040F080008DF8CE
:101E800004000120FEF7E4FA0C4C00221021204649
:101E9000FEF7ECFBFF23012201A90948FFF7ADF88B
:101EA000FF23012269460648FEF7FCFF01221021AC
:101EB0002046FEF7DBFB9DF800001CBD000801403A
:101EC000280000200148FEF7E3BE000028000020A3
:101ED00010B5406A0021C187C186FEF7D7FE10BD4C
:101EE000F8B5044640684FF48273984217D1A06851
:101EF0004FF48065B0F5004F01D0A8420FD12068A3
:101F0000066826F0400606606068984207D1A0681F
:101F1000A84204D100920B460022012103E0009266
:101F20000B4600228021204600F018F8002804D03B
:101F3000606D40F0200060650320F8BD38B50B46A9
:101F4000009204460022802100F008F8002804D006
:101F5000606D40F020006065032038BD2DE9F84336
:101F60001E46914688460446089DFEF785FB401BA9
:101F7000351AFEF781FB074625480068C0F3CB30D1
:101F8000684338E0701C37D0FEF776FBC01BA842D0
:101F900003D215B1009860B32CE02068416821F0AD
:101FA000E00141606068B0F5827F0BD1A068B0F5B8
:101FB000004F02D0B0F5806F04D12068016821F095
:101FC00040010160A06AB0F5005F09D12068016896
:101FD00021F4005101602068016841F40051016062
:101FE000012084F85100002084F850000320BDE84F
:101FF000F8830025401E00902068816838EA0100BF
:1020000004D000214945BDD10020F0E70121F9E7C6
:102010000C000020704770B50C460546FFF726FF00
:1020200040EA04012846BDE8704000F08FB9000086
:102030003EB500216A46435C1B0902F81130092BAA
:1020400001D9373300E0303302F81130435C02EB42
:10205000410403F00F036370092B01D9373300E00B
:102060003033491CC9B263700429E4D300208DF8D1
:102070000800114601A000F08DF93EBD49443E3EE6
:102080003E25730D0A000000FEF7FCBA30B58FB094
:1020900028216846FEF77FF814210AA8FEF77BF88E
:1020A00001210804CDE900100024029402250491C6
:1020B000CDE907504FF4E01009906846FEF756FC52
:1020C00008B172B6FEE70F20CDE90A054FF4806033
:1020D000CDE90C4002210AA80E94FEF76BFB002804
:1020E00001D072B6FEE70FB030BD704710B5406A40
:1020F0000021C185C184FFF743F910BD01680C318F
:1021000051E8002F22F4907241E80023002BF5D112
:102110000168143151E8002F22F0010241E8002348
:10212000002BF5D1016B012909D101680C3151E86F
:10213000002F22F0100241E80023002BF5D12021CE
:1021400080F8421000210163704708B590F84210F2
:10215000222901D0022008BD82684FF480539A42A0
:1021600001D1016921B1816A9A421BD04AB10AE0CA
:102170000268816A5268C2F308020A80816A891C77
:1021800008E0026972B10268526802F07F020A70C8
:10219000816A491C8162C18D491E0904090CC185EF
:1021A00003D01BE002685268F1E70168CA6822F0B8
:1021B0002002CA600168CA6822F48072CA6001689D
:1021C0004A6922F001024A61202180F84210002170
:1021D0004163026B012A03D0FFF77CFA002008BD9F
:1021E000016301680C3151E8002F22F0100241E830
:1021F0000023002BF5D101680A68D20602D50A68CF
:1022000049680091818DFFF7BAF8E7E770B5044699
:1022100000680169E26821F44051114301612169BC
:10222000A0680843616908432168CA6841F20C63E9
:102230009A430243CA6020684169A26921F440714F
:10224000114341611E492068884202D1FEF758FBC4
:1022500001E0FEF745FB00EBC00101EB00126068F6
:1022600064218000B2FBF0F3B3FBF1F36FF01806CA
:102270007343B2FBF0F5B2FBF0F605EB83053223B6
:1022800003EB0515B5FBF1F5B6FBF1F605F0F0052E
:1022900005EB0615B2FBF0F6B2FBF0F0B0FBF1F087
:1022A0006FF01802504306EB800003EB0010B0FB08
:1022B000F1F0216800F00F002844886070BD000034
:1022C000003801402DE9F041984617460E46044675
:1022D000069D27E0681C25D02DB1FEF7CDF9A0EBB7
:1022E0000800A8421ED920680C3050E8001F21F4D5
:1022F000D07140E80012002AF5D12068143050E86F
:10230000001F21F0010140E80012002AF5D1202031
:1023100084F8410084F84200002084F84000032043
:10232000BDE8F0812068006836EA000004D0002093
:10233000B842CFD00020F3E70120F9E70148FFF7CA
:1023400021B8000080000020FEE7000038B5002220
:1023500000927E2202EA40008DF800008DF8011004
:102360000120FEF775F8094C002210212046FEF7E7
:102370007DF9FF23022269460548FEF73EFE012251
:1023800010212046FEF772F938BD00000008014018
:10239000280000200FB4054B10B503A9044A029889
:1023A00000F028F810BC5DF814FB00008928000834
:1023B000240000200907090E002804DB00F1E020BA
:1023C00080F80014704700F00F0000F1E02080F862
:1023D000141D704702E008C8121F08C1002AFAD174
:1023E00070477047002001E001C1121F002AFBD195
:1023F000704700002DE9FF4F8DB00F4605460026BF
:1024000006E025280BD0DDE90F1290476D1C761CE5
:1024100028780028F5D111B03046BDE8F08F0024AF
:10242000A246A1460122EC4900E0044315F8013F11
:10243000203B02FA03F00842F7D128782A2810D06E
:102440006FF02F022878A0F13001092914D80AEB87
:102450008A0102EB410144F0020400EB010A6D1C09
:10246000F0E701CF5FEA000A03D544F40054CAF153
:10247000000A44F002046D1C28782E2817D115F8A4
:10248000010F44F004042A280ED06FF02F022878A0
:10249000A0F1300109290AD809EB890102EB4101B9
:1024A00000EB01096D1CF2E757F8049B6D1C2878BE
:1024B0006C280FD006DC4C2817D068280DD06A286D
:1024C00014D104E0742810D07A280FD10DE044F420
:1024D00000140AE044F4801401E044F440146978E4
:1024E000814202D104F580146D1C6D1C2A786E2A7D
:1024F0001FD00CDC632A31D004DC002A8BD0582A90
:1025000011D1A3E0642A68D0692A0CD165E0732A4E
:102510002ED004DC6F2A73D0702A04D19BE0752A78
:102520006FD0782A6ED01046DDE90F129047761CE6
:1025300050E1C4F30250022806D0032809D0042831
:1025400001CF09D0066045E101CFF117C0E9006174
:1025500040E101CF06803DE106703BE117F8040B36
:102560008DF8000000208DF80100EB46012003E00B
:1025700057F804BB4FF0FF3061074FF0000102D461
:102580000DE008F10101884649450FDA8045F8DB86
:102590001BF808100029F4D108E008F10101884671
:1025A0008142FADB1BF808100029F6D1DDE90F2380
:1025B000AAEB08008146214600F036F9304400EBD2
:1025C000080604E0DDE90F121BF8010B9047B8F193
:1025D0000108F7D221464846F7E00A21C4F3025326
:1025E0004FF0000B0891022B04D001CFC117032B31
:1025F00009D00AE0FF1D27F00707F7E8020108E00D
:1026000032E01FE020E000B2C117042B01D140B23C
:10261000C117031E71F1000307DA4FF0000CD0EB75
:102620000C006CEB01012D2302E0230504D52B23C4
:102630008DF82430012303E0E30701D02023F7E7DE
:10264000984658E00A2110E010210EE010204FF0CB
:10265000000B08900CE010214FF0000B44F0040434
:102660004FF00809089103E008214FF0000B089192
:10267000C4F30253022B04D001CF0021032B06D058
:1026800006E0FF1D27F00707F7E8020103E080B22C
:10269000042B00D1C0B24FF0000823072BD5702ABD
:1026A00007D0DDF820C08CF0100C5CEA0B0C05D0D4
:1026B0000EE040238DF82430012308E050EA0103A6
:1026C00006D030238DF824308DF82520022398463B
:1026D000DDF820C08CF0080C5CEA0B0C0BD150EA42
:1026E000010301D1630706D530238DF824304FF064
:1026F0000108A9F10109582A04D038A20B9208AAAE
:102700000A920BE03AA2F9E75B46089AFDF74EFD04
:102710000B9B9B5C0A9A521E0A92137050EA0102AC
:10272000F2D10A98ADEB000000F1200B600702D552
:1027300024F4803401E04FF00109D94502DDA9EB12
:102740000B0000E0002000EB0B0141440890AAEBD5
:10275000010AE00306D4DDE90F232146504600F0CC
:1027600063F806444FF0000908E009A911F80900D0
:10277000DDE90F12904709F10109761CC145F4DB30
:10278000E0030CD5DDE90F232146504600F04CF85C
:10279000064404E0DDE90F1230209047761C0899CA
:1027A000481E08900029F5DC08E00A980A9900788C
:1027B000491C0A91DDE90F129047761CBBF100011C
:1027C000ABF1010BF1DC21465046DDE90F2300F0AF
:1027D00019F806446D1C1BE609280100303132331C
:1027E000343536373839616263646566000000004D
:1027F0003031323334353637383941424344454637
:10280000000000002DE9F041044600251E46174651
:10281000880404D405E039462020B0476D1C641EAE
:10282000F9D52846BDE8F0812DE9F04104460025A0
:102830001E469046C80301D5302700E020278804B3
:1028400004D505E041463846B0476D1C641EF9D5F5
:102850002846BDE8F08170B54FF0E02300215C69A7
:1028600000EBC0009A69C50098699042FCD002D282
:10287000A2EB000202E0A4EB00063244114402463F
:10288000A942F1D370BD000013B54FF6FF730122CA
:1028900069460248FEF71FFF00981CBD800000201B
:1028A000044B08B1002200E0012220211846FDF768
:1028B000DDBE0000000C0140FDF7ECFEFFF7E6FB7B
:1028C000FEF758FFFEF7CEFFFEF7F0FFFFF784FAA2
:1028D0000120FFF7E5FF0A20FDF7BAFDFFF7D4F965
:1028E000F9E7010202030405060708090A0B0C0DAB
:1028F0000E0F101000000000000000000102030491
:102900000607080900000000010203042C29000842
:102910000000002028000000D423000854290008EB
:1029200028000020B0040000E4230008010000009B
:1029300010000000000000000024F4000800000067
:1029400000000000FFFFFFFFFFFFFFFFFFFFFFFF93
:042950000000000083
:0400000508000131BD
:00000001FF
