:020000040800F2
:10000000700A0020450100088F1800082515000817
:100010008D180008E3090008C5280008000000004A
:100020000000000000000000000000005F28000841
:10003000E5090008000000005D28000861280008AC
:100040005F0100085F0100085F0100085F01000810
:100050005F0100085F0100085F0100085F01000800
:100060005F0100085F0100085F0100085F010008F0
:100070005F0100085F0100085F0100085F010008E0
:100080005F0100085F0100085F0100085F010008D0
:100090005F0100085F0100085F0100085F010008C0
:1000A0005F0100085F0100085F0100085F010008B0
:1000B0005F0100085F0100085F0100085F010008A0
:1000C0005F0100085F0100085F0100085F01000890
:1000D0005F0100085F0100085F0100085F01000880
:1000E0005F0100085F0100085F0100085F01000870
:1000F0005F0100085F0100085F0100085F01000860
:100100005F0100085F0100085F0100085F0100084F
:100110005F0100085F0100085F0100085F0100083F
:100120005F0100085F0100085F0100085F0100082F
:10013000DFF80CD000F02CFC00480047C536000862
:10014000700A00200648804706480047FEE7FEE7A1
:10015000FEE7FEE7FEE7FEE7FEE7FEE7FEE7FEE777
:10016000C328000831010008202A04DB203A21FAC4
:1001700002F00021704721FA02F3D040C2F12002C0
:100180009140084319467047D2B201E000F8012BB4
:10019000491EFBD270470022F6E710B513460A4607
:1001A00004461946FFF7F0FF204610BD10B50022A7
:1001B00000E0521C835C8C5CA34201D1002BF8D17F
:1001C000D8B2E1B2401A10BDF0B480EA0102D40FF7
:1001D0004200B2EB410F02D20246084611464A00E5
:1001E00042D0C30DDDB2C1F3C752AD1A202D35DAAE
:1001F000C1F3160141F4000204B15242C5F12006D8
:1002000002FA06F12A411044B3EBD05F23D0C4B107
:10021000012DA0EBC35009DCF0BC4FF0004202EA14
:10022000C352DBB200F5000000F0CBBA400000F191
:10023000807000EBC350A0F1807040EAD17049009B
:1002400009E0490841EAC071A0EBC35000F5000085
:10025000400800EBC350F0BC00F0AABA6142012292
:1002600002EB4101001BF6E7F0BC704781F0004152
:10027000AAE780F00040A7E72DE9FE4F804681EA1B
:100280000300C00F0C46009021F0004123F0004510
:10029000B8EB0200A94105D24046214690461C46D3
:1002A0000B46024623F00040104347D0270DC7F30A
:1002B0000A00C3F30A510290401A019040286BDAF9
:1002C000C3F3130040F4801B0098924620B1002332
:1002D000D2EB030A63EB0B0B01985946C0F14002C5
:1002E000504600F044FA06460D4650465946019ADB
:1002F00000F04CFA10EB08006141002487EA11522B
:1003000084EAE7731A4340D0009A62B3019A012A43
:100310004FEA075215DC001B61EB02014FF000426F
:1003200002EA0752CDE90042001C41F58011324635
:100330002B4600F083FA03B0BDE8F08F404621461B
:10034000F9E7001B61EB0201001C41F58013001866
:100350005B412018A2F5001747EB030140EAD57076
:10036000B6196D4111E06D084FEA360645EAC075D1
:100370004FEA0752001B61EB0201001C41F580119E
:1003800049084FEA30000019514132462B4603B06C
:10039000BDE8F04F00F043BA00980122400000236E
:1003A000D0EB020263EBE073009821464FEAE07461
:1003B000B8EB000061EB0401E9E783F000435BE781
:1003C00081F0004158E72DE9FE4F81EA030404F073
:1003D000004421F0004100944FF0000B23F0004353
:1003E00050EA01045ED052EA03045BD0C3F30A541E
:1003F000C1F30A552C44A4F2F3340194A0FB025437
:10040000C1F3130141F48011C3F3130343F48013C8
:1004100001FB024400FB034E840A970A44EA81541C
:1004200047EA8357A4FB076802958D0A05FB0785F9
:100430004FEA932C04FB0C542705029D4FEA065803
:1004400047EA1637B5EB08056EEB070C870E920EE0
:1004500047EA811742EA8312A7FB0201B6EB0B01C0
:1004600064EB00042B0D43EA0C335E1844EB1C5084
:10047000DA465146E7FB0201C5F313044FEA0B339A
:1004800043EA14534FEA0432019C43EA0603A4F101
:100490000C040294009CCDE900B400F0CFF903B045
:1004A000BDE8F08F00200146F9E72DE9F04D81EA23
:1004B000030404F0004B21F0004514464FF0000AFD
:1004C00023F0004150EA050220D054EA01021DD079
:1004D000C5F30A570246C5F31303C1F31300C1F372
:1004E0000A5640F4801543F48013A7EB0608101B4E
:1004F000D64608F2FD3873EB050002D308F1010877
:1005000001E092185B41B8F1000F03DA00200146C8
:10051000BDE8F08D00204FF48011064684460EE0C1
:10052000171B73EB050705D3121B63EB050306438B
:100530004CEA010C49084FEA300092185B4150EA3E
:100540000107EDD152EA030012D082EA040083EAE7
:100550000501084305D0101BAB4106D20122002340
:1005600006E000224FF0004302E06FF0010253105A
:100570001AEB06004CEB085110EB0A0041EB0B01A3
:10058000BDE8F04D00F04BB9C10F80EAE0700844BF
:10059000CA079623002100F014B90EB5C10F80EAF6
:1005A000E0700844CA07002140F233438DE80E0092
:1005B0000A460B4600F042F903B000BD0EB540F20A
:1005C000334102910021CDE900110A460B4600F0AB
:1005D00035F903B000BD70B5C1F30A5201F0004512
:1005E0000024C1F3130140F2FF3341F480119A4219
:1005F00001DA002070BD40F233439A42A2F2334246
:1006000003DC5242FFF7B0FD00E090402C43F1D0F4
:10061000404270BDC1F30A5210B5C1F3130140F25C
:10062000FF3341F480119A4201DA002010BD40F2FC
:1006300033439A42A2F2334203DC5242FFF794FD65
:1006400010BD904010BD000030B5041E71F10004D3
:1006500004DB4FF00044404264EB0101141E73F1CF
:10066000000405DB1C464FF00043524263EB0403D9
:100670008B4208BF824230BD30B5041E71F10004C8
:1006800004DB4FF00044404264EB0101141E73F19F
:10069000000405DB1C464FF00043524263EB0403A9
:1006A000994208BF904230BD01F0004330B421F0C0
:1006B000004150EA010206D00A0DA2F56072C1F3B2
:1006C0001301002A02DC30BC00207047440F44EACA
:1006D000C104C100E01830BC00EBC25000F068B8A3
:1006E00030B50B46014600202022012409E021FA02
:1006F00002F59D4205D303FA02F5491B04FA02F5FF
:100700002844151EA2F10102F1DC30BD2DE9F05F95
:100710000546002092469B46884606468146402470
:100720001BE02846414647462246FFF71DFD53463B
:100730005A46C01A914110D311461846224600F07D
:1007400016F82D1A67EB01084F46224601200021BA
:1007500000F00DF817EB00094E41201EA4F1010432
:10076000DFDC484631462A464346BDE8F09F202A52
:1007700004DB203A00FA02F1002070479140C2F1F8
:10078000200320FA03F3194390407047202A06DB28
:10079000CB17203A41FA02F043EAE07306E041FA4F
:1007A00002F3D040C2F1200291400843194670473D
:1007B0000029A8BF7047401C490008BF20F0010075
:1007C000704710B4B0FA80FC00FA0CF050EA010453
:1007D00004BF10BC704749B1CCF1200421FA04F4E5
:1007E00011FA0CF118BF012121430843A3EB0C01BE
:1007F000CB1D4FEA00614FEA102042BF002010BC21
:10080000704700EBC35010440029A4BF10BC7047D0
:10081000401C490008BF20F0010010BC704710B513
:10082000141E73F1000408DA401C41F10001921813
:100830005B411A4301D120F0010010BD2DE9F04DBC
:1008400092469B4611B1B1FA81F202E0B0FA80F211
:1008500020329046FFF78BFF04460F4640EA0A001D
:1008600041EA0B0153465A46084313D0114653EA56
:10087000010019D0C8F140025046FFF775FC05464B
:100880000E46504659464246FFF771FF084305D0D1
:10089000012004E020463946BDE8F08D00200543E4
:1008A00046EAE0762C4337430A986305E40AA0EB56
:1008B00008000022FD0A44EA47540A3002D500200D
:1008C0000146E9E7010510196941DDE9084500190C
:1008D0006941BDE8F04DA2E72DE9F041054621F060
:1008E00000400C46284309D0C4F30A5040F233417B
:1008F000884205DD28462146BDE8F0812846FBE711
:1009000040F2FE31884210DC0CDB4FEA043040EA52
:10091000155050EA053105D0104804F0004101435C
:100920000020E9E700200146E6E7A0F23340464216
:10093000C6F1400228462146FFF719FF07468846C0
:10094000284621463246FFF70FFC43463A46FFF75A
:1009500066FF3246BDE8F041FFF709BF0000F03FF7
:10096000C1F30A52C1F3130140F2FF3341F4801185
:100970009A4202DA00200146704740F233439A421D
:10098000A2F2334202DC5242FFF7EEBBFFF7EFBEAA
:10099000064C074D06E0E06840F0010394E80700CC
:1009A00098471034AC42F6D3FFF7C6FB3844000832
:1009B0005844000870B521F0004303430CD0C1F344
:1009C0000A550024D5EB040564EB0403D617AD1AD1
:1009D000B34102DB0020014670BD201841EB0251FB
:1009E00070BDFEE7704772B6FEE7000070B50446C2
:1009F00000F010F90546601C02D004480078044459
:100A000000F008F9401BA042FAD370BD000000209E
:100A10002DE9F84FDFF8C8910024A9F1040B234613
:100A20000F2709F1040AABF1040ED1E00125A5401E
:100A300006EA0502AA4276D1DFF8A8C14E68A6EB05
:100A40000C0866452BD00DDC032E34D005DC36B304
:100A5000012E19D0022E2FD11BE0112E16D0122EEE
:100A60002AD119E0B8F5881F19D006DCB8F5803F07
:100A700015D0B8F5801F1FD111E0B8F5001F0ED0BA
:100A8000B8F5041F18D10AE0CB6815E0CB681B1D30
:100A900012E0CB6808330FE0CB680C330CE08B68B6
:100AA0002BB1012B4FF0080303D0456104E0042370
:100AB00002E0056100E00023FF2A01D8064601E0BC
:100AC00000F104064FEA840501D9A5F12005D6F806
:100AD000008007FA05FC28EA0C0803FA05F548EA45
:100AE0000508C6F800804D68ED0070D53E4DAE6932
:100AF00046F00106AE61AD6924F0030605F001057C
:100B000000953A4D06EB050CDCF80850A607360FA9
:100B100007FA06F825EA0805DFF8D480404503D136
:100B20004FF0000825E052E0DFF8C880404502D1D0
:100B30004FF001081DE0DFF8C080404502D14FF0C2
:100B4000020816E0DFF8B480404502D14FF00308F8
:100B50000FE0DFF8AC80404502D14FF0040808E018
:100B6000DFF8A080404502D14FF0050801E04FF0CA
:100B7000060808FA06F848EA0508CCF808804D6827
:100B8000D9F80060ED024D4601D5164300E09643CA
:100B90002E604D68DAF80060AD02554601D5164367
:100BA00000E096432E604D68DBF80060AD035D46C3
:100BB00001D5164300E096432E604D68DEF80060D4
:100BC000ED03754601D5164300E096432E60641C84
:100BD0000A681646E2407FF429AFBDE8F88F0000AE
:100BE0000804014000001110001002400000014004
:100BF00000080140000C01400010014000140140B9
:100C000000180140001C01400AB10161704709044D
:100C1000FBE70000014880687047000000000020EA
:100C200070B5040025D094F83D00002520B984F863
:100C30003C50204600F04EF9242084F83D00206806
:100C4000016821F0010101602068016841F4004160
:100C500001602068016821F40041016000F088FA19
:100C60004D4A6168914201D84C4900E04C498842A4
:100C700001D2012070BD4B492368B0FBF1F15E68E1
:100C800026F03F060E435E606368934206D94FF438
:100C9000967359434FF47A73B1FBF3F12368491CFF
:100CA0001E6A26F03F06314319626168914210D8EE
:100CB0004900401EB0FBF1F2521CC2F30B02042AA1
:100CC00001D2042022E0B0FBF1F0401CC0F30B0085
:100CD0001CE0A268F2B301EBC10303EB0116431E53
:100CE000B3FBF6F35B1C43F480431B0549D092B37E
:100CF00001EBC10202EB0111401EB0FBF1F0401C00
:100D0000C0F30B0040F4804040F400402168CA6901
:100D10004CF6FF739A431043C861D4E907100143AE
:100D20002068026822F0C00211430160D4E9030187
:100D300001432068826848F2FF339A43114381607F
:100D4000D4E9050108432168CA6822F0FF02104374
:100D5000C86001E00EE016E02068016841F0010182
:100D600001602564202084F83D00256384F83E500E
:100D7000002070BD01EB4106431EB3FBF6F35B1C84
:100D8000B3E70120C2E701EB4101401EB0FBF1F0E7
:100D9000401CC0F30B00B7E7A086010080841E0052
:100DA00000093D0040420F002DE9F84F1F469046D4
:100DB0008A460446DDF82890FFF72CFF054694F894
:100DC0003D0020287FD1192301224049204600956B
:100DD00000F03AFC002876D194F83C00012872D04B
:100DE000012084F83C0020680168C90703D101682C
:100DF00041F0010101602068016821F40061016097
:100E0000212084F83D00102084F83E00002626644E
:100E1000C4F824806785608D20852D48E0622B46CC
:100E20004A465146204600F095FB90B9206841693A
:100E30008069009036E02A464946204600F0AAFC28
:100E400050B1206C042804D12068016841F400717D
:100E500001600120BDE8F88F606A216800780861B0
:100E6000606A401C6062618D491E6185218D491E4A
:100E700089B2218522685369DB435B070BD451B1EA
:100E800000781061606A401C6062608D401E608561
:100E9000208D401E20852A464946204600F0A8FBAA
:100EA0000028CED1208D0028C5D154F83D0B016813
:100EB00041F400710160202004F81E09E67766778E
:100EC0000020C7E7FFE70220C4E70000020010008F
:100ED0000000FFFF10B586B0002100910191029142
:100EE000039100680F4988421AD10F4CA06940F065
:100EF0000800A061A069694600F008000490C020C5
:100F0000009012200190032003900848FFF780FD15
:100F1000E06940F40010E061E06900F40010049022
:100F200006B010BD0054004000100240000C01400B
:100F300002488168027811448160704700000020F7
:100F4000074810B5016841F010010160032000F06E
:100F500067F80F2000F006F800F024F8002010BD1C
:100F60000020024070B50D4D04464FF47A71287888
:100F7000B1FBF0F00A490968B1FBF0F000F0BEFAED
:100F800048B9102C07D200222146501E00F028F844
:100F900000206C6070BD012070BD000000000020CA
:100FA0000C0000200C4808B5816941F00101816105
:100FB000816901F001010091C16941F08051C16175
:100FC000C06900F0805000900448416821F0E06161
:100FD00041F00071416008BD001002400000014076
:100FE000F0B40E4B1B680C46C3F30223C3F1070594
:100FF000042D00D90425191D072901D2002300E082
:10100000DB1E012606FA05F1491E214099409E404B
:10101000761E16403143F0BC01F07CBC0CED00E0C4
:10102000064900F0070208684FF6FF03184040EA3F
:101030000220034A10430860704700000CED00E0F6
:101040000000FA052DE9F0470F46050061D0434E38
:10105000306800F00700B84209D2306820F007007D
:1010600038433060306800F00700B84251D128683A
:101070003B4C810712D5400703D5606840F4E0601F
:1010800060602878000703D5606840F460506060B5
:101090006068A96820F0F000084360602878C00705
:1010A00028D06868012810D02168022810D089074C
:1010B00000292EDA616821F0030101436160FFF726
:1010C000A9FD804641F288390DE021688903EFE7E8
:1010D0008901EDE7FFF79EFDA0EB0801494502D924
:1010E0000320BDE8F0876068696800F00C00B0EB91
:1010F000810FEFD1306800F00700B8420BD930689B
:1011000020F0070038433060306800F00700B84234
:1011100001D00120E5E72878400705D56068E96837
:1011200020F4E060084360602878000706D5606816
:10113000296920F4605040EAC100606000F028F89E
:101140006168084AC1F30311515CC8400649086050
:1011500006480068FFF706FF0020C2E700200240B3
:10116000001002403A3A00080C0000200400002061
:101170000448054900684968044AC1F30221515CEA
:10118000C84070470C000020001002404A3A000896
:101190000E4A51680E4801F00C03042B11D0082BA5
:1011A0000FD10C48C1F38343C903C05C0AD5516811
:1011B000084AC1F34041921E515C054A5043B0FBBE
:1011C000F1F07047044948437047000000100240A6
:1011D00000127A002A3A000800093D002DE9F84F74
:1011E000040070D02078C04DC00749D06868C0F3B3
:1011F0008100012807D06868C0F38100022809D166
:101200006868C00306D52868800339D5606800285F
:10121000E7D035E06068B0F5803F0BD010B1B0F595
:10122000A02F11D0286820F480302860286820F48E
:10123000802002E0286840F480302860606890B127
:10124000FFF7E8FC06460AE0286840F480202860A2
:10125000F0E700BFFFF7DEFC801B642873D8286826
:101260008003F7D50CE0FFF7D5FC064605E000BF8C
:10127000FFF7D0FC801B6428F0D828688003F7D4DF
:1012800020789A4E80074FF001094FF0000839D5B9
:10129000686810F00C0F07D06868C0F3810002285E
:1012A00009D16868C00306D42868800714D520696E
:1012B000012808D110E02069B0B1C6F80090FFF70E
:1012C000A9FC074605E00AE1FFF7A4FCC01B0228C1
:1012D000C4D828688007F7D52868616920F0F8002D
:1012E00040EAC10028600DE0C6F80080FFF792FCDC
:1012F000074604E0FFF78EFCC01B022823D82868AD
:101300008007F7D4207800072CD57948A169D9B196
:10131000C0F80090FFF77EFC074604E0FFF77AFC78
:10132000C01B02280FD8686A8007F7D571484FF4B0
:10133000FA510068B0FBF1F0009000BF0098411E28
:101340000091FAD20EE080E0C0F80080FFF762FC66
:10135000074604E0FFF75EFCC01B022875D8686AE8
:101360008007F7D42078400760D5E8690027C000DF
:1013700008D4E86940F08050E861E869012700F08E
:10138000805000905C480168C90513D40168834609
:1013900041F480710160FFF73DFC824606E000BF2A
:1013A000FFF738FCA0EB0A0064284ED8DBF80000F9
:1013B000C005F5D5E06801280AD008B1052813D08A
:1013C000286A20F001002862286A20F0040002E068
:1013D000286A40F001002862E06841F2883B98B139
:1013E000FFF718FC82460BE0286A40F004002862F0
:1013F000EEE700BFFFF70EFCA0EB0A0159455AD8F3
:10140000286A8007F6D50CE0FFF704FC824605E069
:10141000FFF700FCA0EB0A0159454CD8286A800769
:10142000F6D41FB1E86920F08050E861E06988B324
:101430006968C1F38101022944D00228C6F860809E
:1014400004D0FFF7E7FB044638E034E0FFF7E2FBA7
:10145000074604E0FFF7DEFBC01B02282BD82868F4
:101460008001F7D4206AB0F5803F05D16868A16893
:1014700020F4003008436860D4E908010843696833
:1014800021F4741108436860C6F86090FFF7C2FB4E
:10149000044606E025E000BFFFF7BCFB001B022866
:1014A00009D828688001F7D51BE000BFFFF7B2FB21
:1014B000001B022802D90320BDE8F88F28688001AC
:1014C000F4D40EE00128F7D06868226A00F4803175
:1014D000914204D1616A00F47010884201D0012069
:1014E000EAE70020E8E70000001002400000424266
:1014F000800442420C0000200070004010B5401EE5
:10150000B0F1807F01D3012010BD4FF0E024606175
:101510000F21601701F0FEF90020A0610720206173
:10152000002010BDFEE701684A69D24352050FD47E
:101530006FF480624A61002140F8301F202242731C
:101540008173026942F00402026101730120704755
:1015500000207047F8B50446C06A1E460D4617467F
:10156000082807D0012805D010F5803F02D0206B55
:10157000122804D12068016841F48071016013468B
:1015800000224FF001112046009600F05DF840B1B6
:1015900020680068C00502D54FF400702064032065
:1015A000F8BD2069B0F5804F0ED00620216800EA12
:1015B000D51040F0F000086133463A460B4920460A
:1015C00000F08AF878B902E005F0FE0000E0E8B229
:1015D00021680861054933463A46891F204600F0D4
:1015E0007BF80028DCD00120F8BD000008000100D5
:1015F00070B516460D4604461EE02046FFF793FFE1
:1016000008B1012070BD681C16D0FFF703FB801BDA
:10161000A84200D885B920684069C04340070BD56F
:10162000002044F8300F20216173A073216941F03C
:10163000200121612073E4E720684069C04340072E
:10164000DBD4002070BD00002DE9F0479846174616
:101650000D460446C1F30746DDF820902AE000BF9E
:10166000B8F1FF3F26D0FFF7D5FAA0EB09014145BD
:1016700002D8B8F1000F1DD12068012E16D0806964
:1016800025EA00000004000C12D00020B84211D15D
:10169000002044F8300F20216173A073216941F0CC
:1016A0002001216120730120BDE8F0874069E7E750
:1016B0000120EBE72068012E0AD0806925EA0000AE
:1016C0000004000C06D00020B842C9D00020EBE78F
:1016D0004069F3E70120F7E72DE9F0479846164601
:1016E0000D4604464FF000094FF0200AC1F30747AA
:1016F00023E020684069C043400515D42068016894
:1017000041F40071016021686FF480604861C4F8A1
:10171000309084F83DA084F83E90216C41F00401A3
:10172000216484F83C9021E0701C06D0FFF772FA27
:10173000A0EB0800B04203D816B1012F1FD021E062
:101740002068012F15D0806925EA00000004000CF4
:1017500018D000BF44F8309F84F80DA084F80E9094
:10176000216941F02001216184F80C900120BDE83D
:10177000F087406925EA00000004000CEAD12068E7
:10178000406901E02068806925EA00000004000C3F
:10179000AFD1ECE770B516460D4604461EE0204674
:1017A000FFF7C1FE08B1012070BD681C16D0FFF71D
:1017B00031FA801BA84200D885B920684069C0432F
:1017C00000060BD5002044F8300F20216173A07370
:1017D000216941F0200121612073E4E7206840691C
:1017E000C0430006DBD4002070BD000030B585B0DA
:1017F000002414480094019402940394816941F0F8
:1018000004018161816901F004010491816941F061
:101810000801816180690C4D00F0080004900022ED
:1018200020212846FFF7F0F9202000900120CDE983
:1018300001040220039069462846FFF7E9F805B045
:1018400030BD000000100240000C01400D4810B5F2
:101850000B4901600C49416000214FF480428160D6
:10186000C0E9031241618161C1610162FFF7D8F9EA
:10187000002803D0BDE81040FFF7B5B810BD000048
:101880000054004018000020801A0600FEE7FEE722
:1018900010B50021074C0A46002004EBC1131A546E
:1018A000401CC0B28028FAD3491CC9B20829F3D31E
:1018B00010BD00006C000020F0B57F282AD83F2919
:1018C00028D88418802C02D9C0F18002D2B2CC185A
:1018D000402C02D9C1F14003DBB20126DFF838E029
:1018E00087180B4414E001F0070206FA02F5CA0853
:1018F00004460EEBC21207E012F804C02CEA050CF5
:1019000002F804C0641CE4B2A742F5D8491CC9B26D
:101910008B42E8D8F0BD00006C0000202DE9FF5F8D
:1019200014460D460646C2F1010B002721463846F3
:101930000E9B039A00F09EFC20B12819C1B23046DC
:1019400000F07AFB61424FF00009884648460E9B42
:10195000039A00F08FFC20B1281BC1B2304600F082
:101960006BFB394620460E9B039A00F083FC20B1A6
:1019700030192946C0B200F05FFB494640460E9B35
:10198000039A00F077FC20B1301B2946C0B200F06A
:1019900053FB0F98002814D0404610E00146002069
:1019A0000E9B039A00F066FC28B105EB0800C1B25B
:1019B000304600F041FB08F1010000B28046A0452E
:1019C000ECDBC9E07F1C3FB2BBF1000F02DA0BEB8E
:1019D000470004E0641E24B2391B0BEB4100401C9D
:1019E0000FFA80FB214638460E9B039A00F042FC1A
:1019F00028B12819C1B2F019C0B200F01DFB394658
:101A000020460E9B039A00F035FC28B1E819C1B2BC
:101A10003019C0B200F010FB604201B2784200B24F
:101A2000894682460E9B039A00F024FC28B1281BAD
:101A3000C1B2F01BC0B200F0FFFA514648460E9BFF
:101A4000039A00F017FC28B1E81BC1B2301BC0B2EA
:101A500000F0F2FA494638460E9B039A00F00AFC61
:101A600028B1281BC1B2F019C0B200F0E5FA514606
:101A700020460E9B039A00F0FDFB28B1E81BC1B283
:101A80003019C0B200F0D8FA214650460E9B039A96
:101A900000F0F0FB28B12819C1B2F01BC0B200F071
:101AA000CBFA394648460E9B039A00F0E3FB28B177
:101AB000E819C1B2301BC0B200F0BEFA0F98E8B30B
:101AC0004846C8461FE0014638460E9B039A00F080
:101AD000D1FB30B105EB0800C1B2F019C0B200F083
:101AE000ABFA414650460E9B039A00F0C3FB30B15F
:101AF00005EB0800C1B2F01BC0B200F09DFA08F17E
:101B0000010000B28046A045DDDB5046D04621E012
:101B1000014648460E9B039A00F0ACFB30B105EB42
:101B20000800C1B2301BC0B200F086FA4146204620
:101B30000E9B039A00F09EFB40B100E00CE005EB29
:101B40000800C1B23019C0B200F076FA08F1010005
:101B500000B28046B845DBDBA742FFF633AFBDE8F5
:101B6000FF9F00002DE9FF4F804614460D460819DF
:101B7000C1B288B0C2F1010A0026404600F05CFA0A
:101B8000281BC1B2404600F057FA08EB0400294672
:101B9000C0B200F051FAA8EB04002946C0B200F030
:101BA0004BFA0B9800280AD0674206E0E819C1B248
:101BB000404600F041FA7F1C3FB2A742F6DB79E0D5
:101BC000761C36B2BAF1000F02DA0AEB460004E0E6
:101BD000641E24B2311B0AEB4100401C0FFA80FA4C
:101BE0002819C1B2079008EB060081460690C0B2E2
:101BF00000F022FAA819C1B2059008EB0400039086
:101C00000290C0B200F018FAA8EB06002F1B01905A
:101C10000090F9B2C0B200F00FFAA81BC1B2A8EB55
:101C2000040B04900BF0FF0000F006FAF9B209F083
:101C3000FF0000F001FA0498C1B20298C0B200F0AF
:101C4000FBF90798C1B20098C0B200F0F5F9059809
:101C5000C1B20BF0FF0000F0EFF90B9850B36042F7
:101C600007B20FE0069805EB070909F0FF01C0B2C3
:101C700000F0E2F9019809F0FF01C0B200F0DCF9D0
:101C80007F1C3FB2A742EDDB704207B210E000BFFD
:101C900005EB070909F0FF010BF0FF0000F0CCF99C
:101CA000039809F0FF01C0B200F0C6F97F1C3FB2F3
:101CB000B742EDDBA64283DB0CB0BDE8F08F00003D
:101CC0002DE9F04F89B080469946C9F100000E46D3
:101CD000174600251C460590FEF75FFC00229C4B32
:101CE000FEF7CAFA824607FB07FB58460091FEF74B
:101CF00054FC5246CDE90201009BFEF764FB074607
:101D000009FB09F082460491FEF747FC3A46CDE90B
:101D10000001049BFEF7B0FAFEF7C6FC049012988F
:101D200080B1059F0CE0F019C1B20590404600F06B
:101D300083F90598C1B2404600F07EF97F1C3FB29E
:101D4000A742F0DB3019C1B2079008EB05000690FE
:101D5000C0B200F071F9301BC1B2A8EB05070590C5
:101D6000F8B200F069F90798C1B2F8B200F064F96E
:101D70000598C1B20698C0B200F05EF92046FEF7A1
:101D80000CFC0022724BFEF718FB02460B46DDE905
:101D90000201FEF718FB0591691C07460AFB01F0DA
:101DA0000691FEF7FAFB3A46059BFEF74DFC3ED244
:101DB00004984FF00301B0F5000F01EB45010AFB59
:101DC00001F006DAFEF7E0FB0499FEF7FDF9049056
:101DD0000DE06342022101EB43010BFB0100FEF722
:101DE000D3FB0499FEF7F0F9641E24B20490069820
:101DF00005B212980028A5D0604207B208EB050092
:101E00000790A8EB050006900EE0F019C1B205900E
:101E10000798C0B200F010F90598C1B20698C0B298
:101E200000F00AF97F1C3FB2A7428BDAEDE70BFB0B
:101E300009F000FB09F0FEF7B0FBCDE90401611EDB
:101E40000BFB01F04843FEF7A8FBCDE90201284651
:101E5000FEF7A3FB00223E4BFEF70EFA02460B46AE
:101E600081460F46DDE90001FEF7ADFA4A463B46E2
:101E7000FEF7A9FADDE90223FEF7FEF9DDE9042306
:101E8000FEF79BFAFEF710FC81465CE0B9F5000F07
:101E900013DA022101EB4501634203220AFB01F040
:101EA00002EB43020BFB0200FEF76EFB4946FEF716
:101EB0008BF96D1C81462DB20BE06242032101EBD0
:101EC00042010BFB01F0FEF75FFB4946FEF77CF990
:101ED0008146641E129824B2C8B1604207B208EB72
:101EE00005000290A8EB050001900EE0F019C1B2C8
:101EF00000900298C0B200F09FF80098C1B201981B
:101F0000C0B200F099F87F1C3FB2A742EEDB08EBAD
:101F1000050037190290F9B2C0B200F08DF8301BFD
:101F2000C1B20190A8EB05000090C0B200F084F8A7
:101F30000098F9B2C0B200F07FF80198C1B20298DF
:101F4000C0B200F079F8002CA0DC09B0BDE8F08F39
:101F50000000E03F2DE9F04F1E464FF00009044617
:101F60000D461746C846B1420ED1BC4208DD274691
:101F7000144605E02946E0B200F05EF8641C24B285
:101F8000BC42F7DDBDE8F08FBC420DD1B54208DDA3
:101F90001D460E4605E0E9B2204600F04DF86D1CE6
:101FA0002DB2B542F7DDEDE703DD274614461D46A9
:101FB0000E46B54203DD6D4276424FF00109701BBB
:101FC000391B884207DD20462C46054638463746F1
:101FD00006464FF00108701B391B421A4FEA400BAE
:101FE0004FEA420AC1EB40061AE06042C1B203E088
:101FF0006842C1B203E0E1B2E8B201E0E9B2E0B2A6
:1020000000F01AF8BC42BDDA641C24B2002E02DAD9
:1020100006EB0B0003E06D1C2DB206EB0A0006B2C6
:10202000B9F1000F03D0B8F1000FE1D0DDE7B8F14E
:10203000000FE3D0DFE7000010B57F280CD83F2960
:102040000AD8064ACB0802EBC31301F007041A5C56
:102050000121A1400A431A5410BD00006C00002069
:102060002DE9F0430446CF1807988846A518264660
:1020700060BBA7F101090AE041463046FFF7DCFFEB
:1020800009F0FF013046FFF7D7FF761CF6B2B542E4
:10209000F2D846466D1E09E031462046FFF7CCFFD8
:1020A000E8B23146FFF7C8FF761CF6B2B742F3D864
:1020B000BDE8F083444605E021463046FFF7BCFF0B
:1020C000641CE4B2A742F7D8761CF6B2B542F1D848
:1020D000EEE72DE9F04785B00C46DDE90E810D9E57
:1020E000ADF80400ADF80C409A46914605462746E7
:1020F000ADF80620ADF80860ADF80E30ADF81080F0
:1021000001B34946814500D20846864200D2304696
:102110005146A24500D20C46A04500D2444649464D
:10212000A94500D90D46AE4200D935465146BA45BB
:1021300000D90F46B84500D947468046A84213D873
:10214000264622E053464A4621462846FFF702FF2C
:102150004346324621462846FFF7FCFE43463246B8
:1021600051464846FFF7F6FE05B0BDE8F087434606
:1021700003AA01A90320009600F036FB18B13146EE
:102180004046FFF759FF761CF6B2BE42EFD908F180
:102190000100C0B2D1E700204FF47A720021491C3F
:1021A0009142FCD3401C9042F8D370477F2801D85D
:1021B0003F2901D900207047064BCA0803EBC21221
:1021C000105C01F00702012191400840F3D001208A
:1021D000704700006C00002010B5FFF7DCFFAE2058
:1021E00000F0D0FAD52000F0CDFA802000F0CAFA35
:1021F000A82000F0C7FA3F2000F0C4FAD32000F076
:10220000C1FA002000F0BEFA402000F0BBFAA12085
:1022100000F0B8FAC82000F0B5FADA2000F0B2FAFF
:10222000122000F0AFFA812000F0ACFACF2000F0CD
:10223000A9FAD92000F0A6FAF12000F0A3FADB20D9
:1022400000F0A0FA302000F09DFAA42000F09AFAE5
:10225000A62000F097FA8D2000F094FA142000F0E8
:1022600091FAAF2000F08EFAFFF712FBBDE81040A4
:1022700000F074BA2DE9F0411C4615468846FEF779
:102280008CF906460F464046FEF787F932463B4634
:1022900001F030F90C4A0D4BFEF707F900220C4B08
:1022A000FEF791F8FEF797F900B2A54204DAA842CA
:1022B00007DBA04202DD04E0A842FADB0120BDE812
:1022C000F0810020FBE700001F85EB51B81E09409C
:1022D000008066400246012000E05043491EFCD2C7
:1022E00070470FB470B588B014460D46064610AA64
:1022F00068460F9900F0E8FA23466A4629463046B8
:1023000000F016FA08B070BC5DF814FB10B5084B6D
:102310000021002003EBC112145CE4431454401C60
:10232000C0B28028F8D3491CC9B20829F1D310BD26
:102330006C000020F0B57F282AD83F2928D88418BF
:10234000802C02D9C0F18002D2B2CC18402C02D924
:10235000C1F14003DBB20126DFF838E087180B44F7
:1023600014E001F0070206FA02F5CA0804460EEB73
:10237000C21207E012F804C08CEA050C02F804C08F
:10238000641CE4B2A742F5D8491CC9B28B42E8D814
:10239000F0BD00006C00002010B50C4640F0B0000D
:1023A00000F0F0F9102040EA141000F0EBF904F00E
:1023B0000F00BDE8104000F0E5B92DE9F0431D46DF
:1023C0001746894680460024079E12E0291B0220FA
:1023D000491EFFF77FFFB7FBF0F000F0010204FB9E
:1023E0000680C0B233464946303200F007F8641C1C
:1023F000E4B2AC42EAD3BDE8F083000008B5082B94
:102400000DD0062B0AD10A4B02EB420203EB42022B
:10241000C03A00920823062200F0E0F808BD054B00
:1024200003EB0212A2F50072102300920822F3E7D8
:1024300042400008523A00082DE9F74F002482B0CC
:102440009046A24625460DF1040BDFF880900194DA
:1024500034E000BF0BF80410641CE4B2032C2BD34F
:102460000BEB0400002480F801A0264606E0384665
:1024700001A9FDF79BFE58B1761CF6B206EBC6012A
:1024800009EB8100074612A1FDF790FE0028EED16E
:10249000681C0321B0FBF1F1029806EBC60200EBC9
:1024A000011009EB8201091D103810230091C0B200
:1024B0001A46039900F092F86D1CEDB218F8051059
:1024C0000029C7D105B0BDE8F08F00007C420008AC
:1024D000000000002DE9FF5F82B014461D46DDE9D3
:1024E00011B607460022134620462946DDF84080F3
:1024F000FEF7C2F8334605D82B2238460399FFF77A
:102500007DFF06E02D2238460399FFF777FF85F01F
:10251000004520462946FEF77DF88246FEF74EF834
:1025200022462B46FDF74CFF05460C4659460A202D
:10253000FFF7D0FE8146FEF741F82A462346FDF715
:1025400042FF01F027FAFEF765F8B0FBF9F1044607
:1025500001EB0A02B819C0B243460096039900F095
:1025600095F808F1010000FB0670C0B233462E2238
:102570000399FFF743FF08F1020000FB0670C0B2A9
:102580005B4622460096039900F080F806B0BDE84D
:10259000F09F2DE9F0431D469046894607460024EA
:1025A000079E16E0291B1020491EFFF793FEB8FB7B
:1025B000F0F000F00F0204FB06700A2AC0B23346A6
:1025C000494601D2303200E03732FFF717FF641C72
:1025D000E4B2AC42E6D3BDE8F08300002DE9FC4F45
:1025E0001F4615460C4606467F284AD83F2C48D839
:1025F000FFF762F9781EC117002300EB517001212B
:10260000DFF884B004F0070901EBE00737E00020B1
:1026100031E031187F2930D803EBD40ABAF1070F23
:102620002FD80BEBCA1E03FB05F21EF801C0019266
:10263000DDF82C808044CDF8008012F8082002FAE2
:1026400009F24CEA020C0AF101020EF801C0072A55
:102650000FD80EEB0108DDE900C198F8802011F8D1
:102660000CC0C9F108012CFA01FC42EA0C0288F8FE
:102670008020401CC0B2A842CBD35B1CDBB29F427F
:10268000C5DCBDE8FC8F00006C0000202DE9F047A0
:1026900000241D4690468A4681460A27089E14E07B
:1026A000291B0A20491EFFF715FEB8FBF0F0B0FB0E
:1026B000F7F107FB110204FB0690C0B23346514606
:1026C0003032FFF79BFE641CE4B2AC42E8D3BDE8B5
:1026D000F0872DE9F0471E46DDF8208014008A4679
:1026E0008146434604D42B22FFF788FE254603E0AB
:1026F0002D22FFF783FE654200240A2714E0311BD8
:102700000A20491EFFF7E6FDB5FBF0F0B0FBF7F13C
:1027100007FB1102641C04FB0890C0B243465146FB
:102720003032FFF76BFEE4B2B442E8D3BDE8F08785
:102730002DE9F0411E46154688460746002408E06C
:1027400004FB0670C0B233464146FFF757FE641CD7
:10275000E4B22A5D002AF3D1BDE8F08170B5084DDE
:10276000002400212046FFF717FE05EBC41080214E
:1027700000F018F8641CE4B2082CF2D370BD00001D
:102780006C0000201CB5002101918DF805000A2085
:102790000090022301AA78210148FEF705FB1CBD29
:1027A00018000020F8B506460C46481C01F0BCF89D
:1027B000054640202870002004E0315C2A18401CA7
:1027C0005170C0B2A042F8D30A200090631C2A4680
:1027D00078210448FEF7E8FA2846BDE8F84000F002
:1027E00049BF0000180000202DE9F0479A46002359
:1027F000894604461946401E089D28E032F91160BA
:10280000AE4202DD4FF0010C01E04FF0000C32F956
:102810001070AF4202DD4FF0010801E04FF00008F8
:10282000C44511D039F910C039F91100A5EB0608DB
:10283000ACEB000C0CFB08FCBE1B9CFBF6F6064444
:10284000564501DD43B100230846491C09B2A142A7
:10285000D4DB1846BDE8F0870123F5E770477047E1
:10286000FEF766BB30B58FB028216846FDF793FCB4
:1028700014210AA8FDF78FFC01210804CDE90010FE
:102880000024029402250491CDE907504FF4E01092
:1028900009906846FEF7A2FC08B172B6FEE70F2069
:1028A000CDE90A054FF48060CDE90C4002210AA869
:1028B0000E94FEF7C7FB002801D072B6FEE70FB0FA
:1028C00030BD7047FEE7000037B514460846064B9A
:1028D0006A46214600F062F904466946002000F08D
:1028E000F4FC20463EBD0000CB320008490050EA0F
:1028F000C12018BF04204A0D18BF40F0010040F26B
:10290000FF72B2EB515F08BF40F00200012808BF20
:10291000052070470907090E002804DB00F1E020BC
:1029200080F80014704700F00F0000F1E02080F8FC
:10293000141D70472DE9F0414F1E00EBC7010446FE
:10294000D1E9000115461E4637F006020DD02A4691
:102950003346FDF738FD7F1E04EBC703D3E90023A0
:10296000FDF78AFC37F00602F1D1022F25D0042FA3
:1029700013D0062F18BFBDE8F0812A463346FDF775
:1029800022FDD4E90A23FDF777FC2A463346FDF7FA
:102990001AFDD4E90823FDF76FFC2A463346FDF7FC
:1029A00012FDD4E90623FDF767FC2A463346FDF7FE
:1029B0000AFDD4E90423FDF75FFC2A463346FDF700
:1029C00002FDD4E90223FDF757FC2A463346FDF702
:1029D000FAFCD4E90023BDE8F041FDF74DBC01222B
:1029E000FDF7E8BFFDF748BC024A00201107FDF7DC
:1029F000E1BF000001FDFFFF02E008C8121F08C18F
:102A0000002AFAD170477047002001E001C1121F6F
:102A1000002AFBD1704700002DE9FF5F82B0002142
:102A2000DDE90430020DDDF840B0034318D044F670
:102A30001050A2F2FF3242431514119801281FD002
:102A4000A5EB0B00401C5FEA000A4FF000064E4F5A
:102A5000DFF83891B046504615D5CAF1000413E0AE
:102A6000119801244AA3012801D16FEA0B010298B1
:102A7000119AC0E90031C0E9024206B0BDE8F09FFA
:102A8000CBF10000DFE704460021404A491842EB41
:102A90000450CDE9001012E0E00707D032463B4673
:102AA00040464946FDF78FFC8046894632463B4604
:102AB00010461946FDF787FC06460F466410002CA9
:102AC000EAD1DDE90401DDE90023BAF1000F06DAFD
:102AD000FDF779FC42464B46FDF775FC05E0FDF736
:102AE000E4FC42464B46FDF7E0FC04460E4600225D
:102AF000284BFDF7C1FD03D84FF0FF30014607E03A
:102B00000022254B20463146FDF7B6FBFDF728FF96
:102B1000102409E0002C0ADB0A220023FDF7F6FD51
:102B2000039B30321A55641E50EA0102F2D1641C34
:102B3000039AC4F111031444119A012A03D001220B
:102B400008430DD10AE0084304D000204FF0110BD8
:102B5000119072E7A3EB0B056D1E0DE05B4504DDE4
:102B60004FF0000205F1010504E003DA4FF0000226
:102B7000A5F10105002AECD002981199C0E90231B3
:102B8000C0E9004579E70000000014400000F03F74
:102B9000300000000000F0430000E03F2DE9FF4F4F
:102BA00095B09B468946064600250FE2252877D139
:102BB00000242746F84A0121059400E0044316F852
:102BC000013F203B01FA03F01042F7D130782A2868
:102BD00011D06FF02F033078A0F13002092A16D8F7
:102BE000059A44F0020402EB820203EB4202104415
:102BF000761C0590EFE759F8042B0592002A03DABA
:102C0000504244F40054059044F00204761C30789D
:102C10002E2816D116F8010F44F004042A280DD0EE
:102C20006FF02F023078A0F13003092B09D807EBA1
:102C3000870302EB4303C718761CF3E759F8047BBC
:102C4000761C30786C280FD006DC4C2817D068280A
:102C50000DD06A2814D104E0742810D07A280FD13E
:102C60000DE044F400140AE044F4801401E044F45C
:102C700040147278824202D104F58014761C761CCE
:102C8000307866280BD013DC582877D009DC002870
:102C900075D04528F6D04628F4D047281AD19DE1B2
:102CA00018E0632835D0642879D0652812D195E1E1
:102CB000702873D008DC6728F1D069286FD06E289F
:102CC0000DD06F2806D1B5E073282CD0752875D0AB
:102CD000782874D05A46179990476D1C75E1C4F353
:102CE0000250022809D003280DD0D9F8001004287A
:102CF0000DD00D6009F1040967E1D9F80010EA1759
:102D0000C1E90052F6E7D9F800100D80F2E70D7026
:102D1000F0E719F8041B8DF8001000208DF8010071
:102D2000EA46012003E059F804AB4FF0FF30610799
:102D30004FF0000102D40DE008F101018846B942CC
:102D40000FDA8045F8DB1AF808100029F4D108E002
:102D500008F1010188468142FADB1AF808100029BF
:102D6000F6D105985B46A0EB080721463846179A2E
:102D700000F094FA284400EB080507E04DE029E153
:102D80000DE01AF8010B5A4617999047B8F101085F
:102D9000F7D25B4621463846179A13E142E00A22F1
:102DA0000092C4F302524FF0000A022A08D059F8E8
:102DB00004CB032A4FEAEC710AD00DE029E02AE0A7
:102DC00009F1070121F00702F2E802C1914609E08A
:102DD0000FFA8CFC4FEAEC71042A03D14FFA8CFCF9
:102DE0004FEAEC71002907DA0A460021DCF1000CF9
:102DF00061EB02012D2202E0220504D52B228DF881
:102E00000420012203E0E20701D02022F7E79046E8
:102E100059E00A2102E010220DE010214FF0000AD3
:102E200000910BE010224FF0000A44F00404082740
:102E3000009203E008224FF0000A0092C4F302520D
:102E4000022A05D059F804CB0021032A08D009E052
:102E500009F1070121F00702F2E802C1914605E0FD
:102E60001FFA8CFC042A01D10CF0FF0C4FF0000873
:102E7000220728D5702806D0009B83F0100353EA60
:102E80000A0305D00EE040228DF80420012208E05C
:102E90005CEA010206D030228DF804208DF805008E
:102EA00002229046009B83F0080353EA0A030AD1EA
:102EB0005CEA010201D1620705D530228DF80420B9
:102EC0004FF001087F1E582804D034A003900EA8AC
:102ED00002900DE036A0F9E753466046009AFDF7F0
:102EE00015FC84460398825C0298401E0290027092
:102EF0005CEA0100F0D1029806A9081A00F1200A44
:102F0000600702D524F4803400E00127574502DD34
:102F1000A7EB0A0000E0002000EB0A0100900598F2
:102F20004144401A0590E00306D45B462146179AB7
:102F3000059800F0B3F90544002706E001A85A46B9
:102F4000C05D179990476D1C7F1C4745F6DBE00379
:102F50000CD55B462146179A059800F09FF9054469
:102F600004E030205A46179990476D1C0099481E7E
:102F700000900029F5DC08E0029802995A46007892
:102F8000491C0291179990476D1CBAF10001AAF1F2
:102F9000010AF1DC65E1000009280100303132331B
:102FA0003435363738396162636465660000000085
:102FB000303132333435363738394142434445466F
:102FC0000000000000F058F90544761C3078002815
:102FD0007FF4ECAD19B02846BDE8F08F620700D44D
:102FE000062709F1070222F0070CFCE80223E1465C
:102FF00003F000485FEA080C02D00FF2702C0DE0DD
:103000005FEA045C02D50FF2682C07E05FEAC47C3B
:1030100002D00FF2602C01E0AFF2700C4FF0FF38DD
:1030200023F00043CDF850C065280CD006DC4528BD
:1030300009D046281DD047283DD13DE0662818D04C
:1030400067287ED138E00021112F01DB112000E03C
:10305000781CCDE9000106A90EA8FFF7DDFCDDE92B
:103060000F010E9A03910021009207F1010A0491C9
:103070004DE04FF000400097CDE9011006A90EA8E1
:10308000FFF7CAFCDDE90F0203920E9B11990022A3
:10309000DDF80CA00093049211B9791C00EB010A31
:1030A000B7EB0A0004D4C0F1FF3007F1010A049025
:1030B000AAEB0700019044E0012F00DA012700216C
:1030C000112F01DD112000E03846CDE9000106A9ED
:1030D0000EA8FFF7A1FCDDE90F010E9A0391002174
:1030E00004910092BA4621070CD40399514500DAA5
:1030F0008A46BAF1010F05DD009AAAF10101515C7F
:10310000302908D0B84202DA10F1040F06DA0121A2
:10311000CDE9011015E0AAF10101E9E7002805DC7D
:10312000049901440491AAEB000102E0411C5145BD
:1031300000DD8A460499401A401C01904FF000407F
:103140000290200704D40198504501DBCDF804809B
:1031500000208DF84F0002980DF14F07B0F1004F9D
:1031600025D02B200E9002984FF0020800280CDA90
:10317000404202902D200E9007E00A210298FDF7B0
:10318000AFFA3031029007F8011DB8F10001A8F143
:103190000108F2DC02980028EFD1791E0E98087021
:1031A000307800F0200040F0450007F8020D12A82A
:1031B000C01B00F107081498007800B1012000EB53
:1031C0000A01019801EBE07105984144401A401E44
:1031D0000590E00306D45B462146179A059800F057
:1031E0005DF805441498007818B15A46179990472D
:1031F0006D1CE00324D55B462146179A059800F024
:103200004DF805441CE00498002807DBDDE90301C4
:10321000884203DD0098405C179901E0179930203F
:103220005A469047049805F10105401C0490019806
:10323000401E019004D12E205A46179990476D1CCC
:10324000BAF10001AAF1010ADDDC05E017F8010B73
:103250005A46179990476D1CB8F10001A8F1010872
:10326000F4DC5B462146179A0598ABE62D0000007A
:103270002B000000200000002DE9F041044600254D
:103280001E461746880404D405E039462020B0477E
:103290006D1C641EF9D52846BDE8F0812DE9F0418A
:1032A000044600251E469046C80301D5302700E09D
:1032B0002027880404D505E041463846B0476D1CF8
:1032C000641EF9D52846BDE8F0810A68531C0B60DE
:1032D000107070472DE9F84F04460D4621F000406C
:1032E00000917349814211DC7249884201DC06D1A8
:1032F0002CB120462946BDE8F84FFFF770BB6E4859
:10330000002DCCBF6D496E49BDE8F88F6D498142F3
:1033100011DD6D498142D8BF4FF0FF366DDD20468B
:103320002946FFF7E3FA042808BFFFF75DFB2046B4
:103330002946BDE8F88F6549654F25F00045814273
:1033400033DD6449814219DD002632464FF0804367
:1033500020462946FCF790FF80468A4601222046F7
:103360002946FDF727FB00223B46FDF726F842469B
:103370005346FDF79AF804460D463EE0012600222A
:10338000BA463B4620462946FCF776FF80460F4664
:103390000022534620462946FDF70FF842463B4699
:1033A000FDF783F804460D4627E04B4981421BDDBB
:1033B000DFF828A102260022534620462946FDF7C1
:1033C00002F800223B46FCF757FF80460F460022DA
:1033D000534620462946FCF7F0FF42463B46FDF7A0
:1033E00064F804460D4608E0032622462B460020DA
:1033F0003B49FDF75AF804460D4622462B46104637
:103400001946FCF7E0FF8B46824602460B46FCF766
:10341000DAFF07460246334888460B4606217844C1
:10342000FFF788FA52465B46FCF7CDFF82462E48EE
:103430008B463A46434605217844FFF77BFA3A46E5
:103440004346FCF7C0FF02460B46002E5046594645
:103450000CDAFCF711FF22462B46FCF7B4FF01B053
:1034600022462B46BDE8F04FFCF7AABFFCF704FF4D
:1034700022462B46FCF7A7FF1C4A7A4402EBC60300
:10348000D3E90023FCF799FF22462B46FCF795FF72
:10349000174A7A4402EBC603D3E90023FCF790FFF6
:1034A000009A002AB8BF81F00041BDE8F88F000003
:1034B000000010440000F07F182D4454FB21F93F18
:1034C000FB21F9BF0000DC3F0000203E0000F33F7D
:1034D0000000F03F0000E63F008003400000F83F9E
:1034E0000000F0BFDE0F00009C0F00003A0F00004C
:1034F000020F00002DE9F04D9446CCF1000423F0BA
:1035000000464CEA0404524F46EAD4749A46884670
:1035100021F00042BC4206D8454240EA050442EA96
:10352000D474BC4204D9BDE8F04D6246FFF75ABAE4
:10353000AAF14055A5F17F6555EA0C040BD0022491
:1035400004EAAA74434DDFF810E144EAD87452EA61
:10355000000B04D00CE0BDE8F04DFFF7BBBE002C23
:1035600014BF012CBDE8F08D022C30D0032C32D0DA
:1035700056EA0C0B0AD0BE4220D1BA4209D126F03D
:10358000804622F080423346114617E000291ADBBC
:1035900025E0DFF8C8B0FB44002C04BFDBE90001E4
:1035A000BDE8F08D012C02BFDBE9000181F0004194
:1035B000BDE8F08D022C0AD0032C0CD0BA4212D1F7
:1035C000B8F1000F0BDA23482549BDE8F08D2846F5
:1035D0002449BDE8F08D28467146BDE8F08D1D48B0
:1035E0002149BDE8F08D921B12153C2AC4BF194831
:1035F0001D490EDCBAF1000FBEBF12F13C0F0020D6
:10360000014606DB6246FCF750FF21F00041FFF760
:1036100061FE002C08BFBDE8F08D012C04BF81F0D5
:103620000041BDE8F08D114A114B022C07D0FCF788
:10363000C4FE2A46BDE8F04D0A4BFCF7BEBEFCF7BF
:10364000BCFE2A46BDE8F04D064BFCF7B9BE0000B3
:103650000000F07F182D4454FB2109C0960E000095
:10366000FB21F9BFFB210940FB21F93F075C143323
:1036700026A6A13C10B5002821D0114B0022001F26
:10368000196803E0814203D80A4649680029F9D144
:1036900052B11368841A9C4204D100681844106027
:1036A000104602E0506000E0186039B102680B1A61
:1036B000934203D10B681A4402604968416010BD0F
:1036C000100000200EB5FDF73BFCFFF7CBF8FEF72E
:1036D0008DF8FEF7BBF8FEF77FFD002108237CA2E2
:1036E0000846FFF725F80623412212210020FEF7A5
:1036F00085FE06237BA212211020FFF719F806246D
:10370000052343F239021C2100200094FEF7BEFF7E
:1037100002236FF041021C2128200094FEF7D9FFFC
:1037200004234AF2A5521C2146200094FEF731FFE3
:103730000823A522262100200094FEF73EFE022049
:103740000321CDE900106B4A6B4B029426213C20EB
:10375000FEF7C0FE69A230210020FEF76DFE6C4826
:10376000102300901A4630216020FEF737FF69A32E
:103770000622122160200094FEF7B3FDFEF7EEFF53
:1037800040F6B830FDF732F9FEF782F8082105203F
:10379000FEF752FC08210520FEF708FD234608B17C
:1037A0005EA200E05EA204210A20FEF7C1FF0F2303
:1037B0007F2200212820FEF7CDFB00237F220F214E
:1037C0002820FEF7C7FB00240F230C2214212046DB
:1037D0000094FEF745FC01250F230C222821002030
:1037E0000095FEF73DFC1E2623200096CDE901043E
:1037F0001421192328220846FEF76BFC3720009677
:10380000CDE9010528222D2311461420FEF761FC85
:10381000002308221B213720FEF7A4F901230822E8
:103820002F213720FEF79EF908230C221B2152205E
:103830000094FEF745FA08230C222F215220009510
:10384000FEF73EFA7D26CDE9006419230F221221EE
:103850006E20FEF763F8CDE9006519230F222621BB
:103860006E20FEF75BF8FEF779FF40F2DC50FDF7C3
:10387000BDF8FEF773FF2B4FF50000242601F1B2CF
:10388000102380220020FEF755FDFEF767FFF1B2FE
:10389000102380220020FEF74DFD641CE4B2042CAE
:1038A000ECD3FEF733FDFEF759FF012220213C4601
:1038B0003846FDF7A9F92846FDF798F8002220219F
:1038C0002046FDF7A1F92846FDF790F8D5E700005E
:1038D000626C6F672E7A6572756E732E746563689D
:1038E0000000000048656C6C6F20576F726C64219B
:1038F00000000000CDCCCCCCCCDC5E40E4BDA0E52B
:10390000A5BDEFBC8CE4B896E7958CE380820000FF
:10391000784300085B253032645D00005945530050
:103920004E4F2000000C0140F0B50B30154D20F03B
:1039300007010024144A0FE003688B420BD38B422B
:1039400005D95E1A43184768C3E9006700E0436879
:10395000136002C004E0021D10680028ECD120466C
:10396000002802D1286808B10020F0BD064A0748A7
:103970001060074A121A22F00702C0E90024012051
:103980002860D7E7140000201000002074040020F5
:10399000700600202DE9F04D07460E46FCF79CFF0F
:1039A00004460D463A463346FCF70AFDDFF86CA0A4
:1039B000DFF86CB01B4B0746884616F0004F4FF0FF
:1039C00000020AD0FCF740FE0AD900225B463846C6
:1039D0004146FCF751FE1BD212E0FCF735FE08D23F
:1039E0000022534620462946FCF7E7FC04460D46D4
:1039F0000EE000225B4638464146FCF73DFE07D804
:103A00000022534620462946FCF736FC04460D4664
:103A10003146204665F31E01BDE8F08D0000F03F01
:103A20000000E03F0000E0BF0102020304050607BA
:103A300008090A0B0C0D0E0F10100000000000000A
:103A4000000001020304060708090000000001024B
:103A5000030400000000000000000000000000005F
:103A60000000000000F800000000000000333000FB
:103A7000000000160E00160E0000000000000000FE
:103A8000000040C07840C0784000043F04043F0478
:103A90000400007088FC08300000001820FF211E80
:103AA0000000F008F000E018000000211C031E21B7
:103AB0001E0000F00888700000001E212324192732
:103AC0002110000000160E000000000000000000A1
:103AD0000000000000E018040200000000071820A9
:103AE000400000020418E000000000402018070019
:103AF0000000404080F0804040000202010F0102BF
:103B00000200000000F0000000000101011F01019F
:103B10000100000000000000000000B07000000084
:103B20000000000000000000000000010101010190
:103B30000101000000000000000000303000000023
:103B400000000000000080601804006018060100FA
:103B5000000000E010080810E000000F1020201006
:103B60000F00001010F8000000000020203F20206F
:103B70000000007008080888700000302824222106
:103B800030000030088888483000001820202011BC
:103B90000E000000C02010F8000000070424243F9D
:103BA000240000F808888808080000192120201146
:103BB0000E0000E0108888180000000F112020116E
:103BC0000E0000380808C83808000000003F000058
:103BD00000000070880808887000001C2221212243
:103BE0001C0000E010080810E00000003122221143
:103BF0000F00000000C0C0000000000000303000D6
:103C00000000000000C0C0000000000080B0700094
:103C1000000000008040201008000001020408108D
:103C2000200040404040404040000404040404049C
:103C3000040000081020408000000020100804024A
:103C40000100007048080808F0000000003036014C
:103C50000000C030C828E810E0000718272423140B
:103C60000B000000C038E0000000203C23020227C7
:103C7000382008F8888888700000203F2020201114
:103C80000E00C0300808080838000718202020104F
:103C9000080008F808080810E000203F2020201045
:103CA0000F0008F88888E8081000203F2020232013
:103CB000180008F88888E8081000203F200003005A
:103CC0000000C03008080838000007182020221E15
:103CD000020008F808000008F808203F210101212F
:103CE0003F20000808F8080800000020203F20209E
:103CF000000000000808F8080800C08080807F00ED
:103D0000000008F888C028180800203F2001263845
:103D1000200008F8080000000000203F202020209C
:103D2000300008F8F800F8F80800203F003F003F96
:103D3000200008F830C00008F808203F20000718CD
:103D40003F00E01008080810E0000F1020202010AD
:103D50000F0008F808080808F000203F21010101C1
:103D60000000E01008080810E0000F182424385064
:103D70004F0008F8888888887000203F2000030CD6
:103D800030200070880808083800003820212122DF
:103D90001C00180808F8080818000000203F200040
:103DA000000008F808000008F808001F2020202064
:103DB0001F000878880000C83808000007380E0186
:103DC0000000F80800F80008F800033C0700073C72
:103DD0000300081868808068180820302C03032C22
:103DE00030200838C800C83808000000203F2000F4
:103DF000000010080808C8380800203826212020B4
:103E00001800000000FE020202000000007F404097
:103E10004000000C30C00000000000000001063827
:103E2000C00000020202FE000000004040407F008F
:103E3000000000201008040810200000000000000E
:103E40000000000000000000000080808080808072
:103E50008080000204080000000000000000000054
:103E600000000000808080800000001924222222AF
:103E70003F2008F8008080000000003F1120201142
:103E80000E000000008080800000000E1120202025
:103E90001100000000808088F800000E1120201022
:103EA0003F200000808080800000001F222222220C
:103EB0001300008080F0888888180020203F202090
:103EC00000000000808080808000006B94949493B8
:103ED000600008F8008080800000203F2100002062
:103EE0003F2000809898000000000020203F202004
:103EF0000000000000809898000000C08080807F53
:103F0000000008F8000080808000203F24022D304F
:103F10002000000808F8000000000020203F2020BA
:103F200000008080808080808000203F20003F2033
:103F3000003F008080008080000000203F210020A2
:103F40003F200000808080800000001F2020202073
:103F50001F00808000808000000080FFA1202011D1
:103F60000E000000008080808000000E112020A044
:103F7000FF80808080008080800020203F21200002
:103F800001000000808080808000003324242424ED
:103F90001900008080E0808000000000001F2020C9
:103FA00000008080000000808000001F2020201082
:103FB0003F20808080000080808000010E30080655
:103FC000010080800080008080800F300C030C3066
:103FD0000F0000808000808080000020312E0E3194
:103FE0002000808080000080808080818E70180694
:103FF000010000808080808080000021302C222100
:10400000300000000000807C020200000000003F41
:10401000404000000000FF00000000000000FF0022
:1040200000000002027C800000000040403F0000D1
:10403000000000804040800000800000000000017F
:1040400001000000000000000000002F0000000040
:104050000700070000147F147F1400242A7F2A120F
:1040600000231308646200364955225000000007FF
:10407000000000001C224100000041221C0000142E
:10408000083E08140008083E0808000000A0600070
:104090000008080808080000606000000020100800
:1040A0000402003E5149453E0000427F400000426C
:1040B00061514946002141454B31001814127F10CF
:1040C000002745454539003C4A49493000017109FE
:1040D000050300364949493600064949291E0000B2
:1040E0003636000000005636000000081422410059
:1040F0000014141414140000412214080002015189
:104100000906003E4955592E007C1211127C007F91
:1041100049494936003E41414122007F4141221C2C
:10412000007F49494941007F09090901003E414991
:10413000497A007F0808087F0000417F4100002085
:1041400040413F01007F08142241007F4040404031
:10415000007F020C027F007F0408107F003E414177
:10416000413E007F09090906003E4151215E007F62
:10417000091929460046494949310001017F0101D9
:10418000003F4040403F001F2040201F003F40387C
:10419000403F0063140814630007087008070061BB
:1041A0005149454300007F414100000204081020AE
:1041B000000041417F000004020102040040404031
:1041C0004040000001020400002054545478007F55
:1041D0004844443800384444442000384444487F2C
:1041E00000385454541800087E0901020018A4A491
:1041F000A47C007F080404780000447D4000004057
:1042000080847D00007F102844000000417F400032
:10421000007C04180478007C0804047800384444C6
:10422000443800FC242424180018242418FC007CA2
:104230000804040800485454542000043F4440201B
:10424000003C4040207C001C2040201C003C4030B2
:10425000403C004428102844001CA0A0A07C00443E
:1042600064544C440000087F41000000007F0000BF
:104270000000417F0800000804081008EFBC8C0013
:10428000000000000000000000000000000000002E
:10429000000058380000000000000000000000008E
:1042A000E380820000000000000000000000000029
:1042B0000000000000001824241800000000000086
:1042C00000000000E4BDA000008060F80740201856
:1042D0000F08C80808281800010000FF00100C0390
:1042E00040807F0001061800E5A5BD001010F01FFA
:1042F00010F000808282E2928A86800040221508B7
:104300001661000040807F0000000000E4B89600C5
:10431000202020FE2020FF202020FF202020200021
:104320000000007F40404744444447404040000074
:10433000E7958C00000000FE929292FE929292FE0F
:104340000000000008080484621E010001FE02044F
:104350000408080000000000FF01010131090909FB
:1043600009897101010101FFFF80808080808096B2
:1043700081808080808080FFFF01818181FD899123
:10438000A1C1FD81818101FFFF808080809F8884A1
:1043900082819F80808080FF4FBB610567ACDD3FDD
:1043A000182D4454FB21E93F9BF681D20B73EF3F5C
:1043B000182D4454FB21F93FE2652F227F2B7A3CD4
:1043C000075C143326A6813CBDCBF07A8807703C8D
:1043D000075C143326A6913CC4EB98999999C9BF00
:1043E000711623FEC671BCBF6D9A74AFF2B0B3BF35
:1043F0009AFDDE522DDEADBF2F6C6A2C44B4A2BFF5
:104400000D5555555555D53FFF8300922449C23F60
:104410006E204CC5CD45B73F513DD0A0660DB13F94
:10442000EB0D76244B7BA93F11DA22E33AAD903FA6
:1044300000000000000000005844000800000020B8
:1044400018000000F8290008704400081800002037
:10445000580A0000082A00080100000010000000AF
:10446000000000000024F400000000000000000034
:0400000508000131BD
:00000001FF
