:020000040800F2
:10000000B808002045010008271800080B16000852
:100010002518000875040008B91D0008000000003C
:10002000000000000000000000000000371A000877
:100030007704000800000000351A0008D11A0008F3
:100040005F0100085F0100085F0100085F01000810
:100050005F0100085F0100085F0100085F01000800
:100060005F0100085F0100085F0100085F010008F0
:100070005F0100085F0100085F0100085F010008E0
:100080005F0100085F0100085F0100085F010008D0
:100090005F0100085F0100085F0100085F010008C0
:1000A0005F0100085F0100085F0100085F010008B0
:1000B0005F0100085F0100085F0100085F010008A0
:1000C0005F0100085F0100085F0100085F01000890
:1000D0005F010008A11D00085F010008AD1D0008B8
:1000E0005F0100085F0100085F0100085F01000870
:1000F0005F0100085F0100085F0100085F01000860
:100100005F0100085F0100085F0100085F0100084F
:100110005F0100085F0100085F0100085F0100083F
:100120005F0100085F0100085F0100085F0100082F
:10013000DFF80CD000F08AF80048004729210008B9
:10014000B80800200648804706480047FEE7FEE75B
:10015000FEE7FEE7FEE7FEE7FEE7FEE7FEE7FEE777
:10016000331B000831010008202A04DB203A21FA61
:1001700002F00021704721FA02F3D040C2F12002C0
:100180009140084319467047D2B201E000F8012BB4
:10019000491EFBD270470022F6E710B513460A4607
:1001A00004461946FFF7F0FF204610BD30B505465E
:1001B0002A460B4612F8010B13F8014B08B1A04276
:1001C000F8D01CB1002802D06D1CF1E7284630BDE4
:1001D00030B504460020034600E05B1C934203D286
:1001E000E05CCD5C401BF8D030BD2DE9F05F0546EA
:1001F000002092469B4688460646814640241BE0E6
:100200002846414647462246FFF7AEFF53465A4628
:10021000C01A914110D311461846224600F028F822
:100220002D1A67EB01084F4622460120002100F0FD
:100230001FF817EB00094E41201EA4F10104DFDC7A
:10024000484631462A464346BDE8F09F064C074DD6
:1002500006E0E06840F0010394E807009847103496
:10026000AC42F6D3FFF768FF0C2300082C230008EC
:10027000202A04DB203A00FA02F100207047914066
:10028000C2F1200320FA03F31943904070470000A5
:1002900070B501F0F3FB01F0CFFB0B4D0024285D9E
:1002A00001F0D8FC641C0A2CF9DB084C0120C8239F
:1002B00060720C222146064801F002F9607A00289B
:1002C00000D0012070BD000018000020B800002000
:1002D000700000202DE9F04100254FF4FA764FF42C
:1002E000C877052D5AD2DFE805F003152D496500C2
:1002F000641CE4B239A001F061FD01F0E2FAF0B94A
:10030000012001F0C0FAD0B937A001F057FD002458
:10031000012510E0641CE4B236A001F04FFD01F0AD
:10032000D0FA60B9022001F0AEFA40B92EA001F077
:1003300045FD00240225384600F0B4FAD1E701F06B
:10034000B9FB2BE02FA001F039FD01F016FB0500F1
:100350000ED030A001F032FD284601F0ABFB0024A6
:100360002546304600F09EFA384600F09BFABFE77B
:100370002BA001F023FD032530460DE02BA001F05A
:100380001DFD304600F08EFA01F011FB68B100252A
:1003900001F090FB4FF47A7000F084FA384600F0D8
:1003A00081FA0A2C9DD1BDE8F08124A001F006FD60
:1003B0000425EFE726A001F001FD0121022001F054
:1003C00010FB08B10025BAE726A001F0F7FCBDE854
:1003D000F04140F2DC5000F065BA0000C7EBB0B469
:1003E000CAD6D6B80D0A0000D6B8CEC6D5FDB3A37E
:1003F0000D0A0000C7EBD4D9B0B4D2BBB4CE0D0AFD
:1004000000000000B6D4B1C8C1BDB4CED6B8CEC6C7
:100410000D0A0000B6D4B1C8CAA7B0DC0D0A0000AE
:10042000B6D4B1C8B3C9B9A60D0A0000C9FAB3C998
:10043000D6B8CEC6C4A3B0E50D0A0000C9FAB3C948
:10044000D6B8CEC6C4A3B0E5B3C9B9A60D0A00009C
:10045000C4ACC8CFD1A1D4F14944CEAA31200D0AF1
:1004600000000000C2BCC8EBD6B8CEC6B3C9B9A65E
:100470000D0A0000FEE7704710B50AA001F09EFCCF
:100480000120014601F0D0F940B101F013FB00BF9B
:10049000BDE8104040F2DC5000F004BA09A001F0C1
:1004A0008DFCF5E7B5A5B8F6C9BEB3FDD6B8CEC686
:1004B000BFAACABCA3ACC4ACC8CFC9BEB3FD494433
:1004C000CEAA3100C9BEB3FDD6B8CEC6B3C9B9A64F
:1004D000200D0A0021283ED2DFE800F01113151785
:1004E000191B1D1F212325273D3D3D3D292B3D3D4A
:1004F0003D2D3D3D2F313335373D3D393B0017A074
:1005000070471BA070471FA0704723A0704727A00B
:1005100070472BA070472FA0704733A0704737A0BB
:1005200070473BA070473FA0704743A0704747A06B
:1005300070474BA070474FA0704753A0704757A01B
:1005400070475BA070475FA0704763A0704767A0CB
:1005500070476BA070476FA07047000020202020DC
:100560002020204F4B2020202020202000000000B1
:1005700020CAFDBEDDB0FCBDD3CAD5B4EDCEF3209C
:1005800000000000B4ABB8D0C6F7C9CFC3BBD3D00E
:10059000CAD6D6B800000000C2BCC8EBD6B8CEC6DA
:1005A000CDBCCFF1CAA7B0DC0000000020D6B8CE89
:1005B000C6CCABB8C9BBF2CCABB5AD2000000000D7
:1005C00020D6B8CEC6CCABCAAABBF2CCABBAFD2003
:1005D000000000002020D6B8CEC6CDBCCFF1CCABF9
:1005E000C2D220200000000020D6B8CEC6CCD8D57C
:1005F000F7B5E3CCABC9D920000000002020D6B865
:10060000CEC6B2BBC6A5C5E4202020200000000055
:1006100020C3BBD3D0CBD1CBF7B5BDD6B8CEC62087
:1006200000000000202020CCD8D5F7BACFB2A2CA53
:10063000A7B0DC2000000000B5D8D6B7D0F2BAC50C
:10064000B3ACB3F6B7B6CEA7000000002020C9BEF9
:10065000B3FDC4A3B0E5CAA7B0DC202000000000B1
:1006600020C7E5BFD5D6B8CEC6BFE2CAA7B0DC204A
:1006700000000000BBBAB3E5C7F8C4DACEDED3D0C1
:10068000D0A7CDBC0000000020B6C1D0B4464C417C
:100690005348B3F6B4ED202000000000202020CE07
:1006A000B4B6A8D2E5B4EDCEF320202000000000BF
:1006B0002020CEDED0A7BCC4B4E6C6F7BAC5202041
:1006C0000000000020BCC4B4E6C6F7C4DAC8DDB43C
:1006D000EDCEF3200000000020BCC7CAC2B1BED2DC
:1006E000B3C2EBB4EDCEF3200000000020202020A8
:1006F000D6B8CEC6BFE2C2FA2020202000000000FB
:1007000020202020B5D8D6B7B4EDCEF3202020206D
:100710000000000020B7B5BBD8C8B7C8CFC2EBD324
:10072000D0CEF3200000000072B6FEE710B590F8BE
:1007300021100022022905D00421816380F82020A5
:10074000012010BD01680B6823F00E030B600168E7
:100750000B6823F001030B6090F84030C46B01215B
:1007600001FA03F3636080F8211080F8202010461E
:1007700010BD00002DE9F05F90F82110002402293F
:1007800003D004218163012485E001680A6822F016
:100790000E020A6001680A6822F001020A603F4EF8
:1007A0003E4FB215DFF8F4C0DFF8F090DFF8ECA0B0
:1007B000DFF8E8B0DFF8E4E00168783F13011502E4
:1007C000ACF1640CA9F15009AAF13C0AABF1280B79
:1007D000AEF1140E4FF48018B14227D9B9420ED0B1
:1007E000614512D049451DD0514518D0594518D002
:1007F000714501D1424615E0294EB14201D1012295
:1008000010E0274E1436B14201D110220AE0244EE6
:100810002836B14206D0224A3C32914201D11A46D2
:1008200000E02A461E49091F0A602BE0B94213D096
:10083000614517D0494522D051451DD059451DD09D
:10084000714501D142461AE0B14202D14FF08072A7
:1008500015E0134EB14201D1012210E0104E1436C2
:10086000B14201D110220AE00D4E2836B14206D025
:100870000B4A3C32914201D11A4600E02A46074910
:1008800080394A60012180F82110002180F8201071
:10089000416B01B188472046BDE8F09F80000240CF
:1008A0000804024070B5044600F014F90546601CC7
:1008B00002D004480078044400F00CF9401BA04228
:1008C000FAD370BD000000202DE9F84FDFF8C89181
:1008D0000024A9F1040B23460F2709F1040AABF108
:1008E000040ED1E00125A54006EA0502AA4276D110
:1008F000DFF8A8C14E68A6EB0C0866452BD00DDCCE
:10090000032E34D005DC36B3012E19D0022E2FD1A0
:100910001BE0112E16D0122E2AD119E0B8F5881F2F
:1009200019D006DCB8F5803F15D0B8F5801F1FD16F
:1009300011E0B8F5001F0ED0B8F5041F18D10AE079
:10094000CB6815E0CB681B1D12E0CB6808330FE0C5
:10095000CB680C330CE08B682BB1012B4FF00803F4
:1009600003D0456104E0042302E0056100E00023B8
:10097000FF2A01D8064601E000F104064FEA84058B
:1009800001D9A5F12005D6F8008007FA05FC28EA70
:100990000C0803FA05F548EA0508C6F800804D681A
:1009A000ED0070D53E4DAE6946F00106AE61AD6911
:1009B00024F0030605F0010500953A4D06EB050C01
:1009C000DCF80850A607360F07FA06F825EA0805EE
:1009D000DFF8D480404503D14FF0000825E052E015
:1009E000DFF8C880404502D14FF001081DE0DFF874
:1009F000C080404502D14FF0020816E0DFF8B48015
:100A0000404502D14FF003080FE0DFF8AC804045CD
:100A100002D14FF0040808E0DFF8A080404502D181
:100A20004FF0050801E04FF0060808FA06F848EA1A
:100A30000508CCF808804D68D9F80060ED024D46F5
:100A400001D5164300E096432E604D68DAF8006049
:100A5000AD02554601D5164300E096432E604D6821
:100A6000DBF80060AD035D4601D5164300E0964318
:100A70002E604D68DEF80060ED03754601D5164323
:100A800000E096432E60641C0A681646E2407FF43C
:100A900029AFBDE8F88F00000804014000001110E4
:100AA000001002400000014000080140000C01401D
:100AB000001001400014014000180140001C0140DA
:100AC0008068084000D0012070470AB1016170477A
:100AD0000904FBE70148806870470000000000201F
:100AE000024881680278114481607047000000204C
:100AF000074810B5016841F010010160032000F0C3
:100B000075F80F2000F006F800F024F8002010BD62
:100B10000020024070B50D4D04464FF47A712878DC
:100B2000B1FBF0F00A490968B1FBF0F000F0DCFA23
:100B300048B9102C07D200222146501E00F036F88A
:100B400000206C6070BD012070BD0000000000201E
:100B50000C0000200C4808B5816941F00101816159
:100B6000816901F001010091C16941F08051C161C9
:100B7000C06900F0805000900448416821F0E061B5
:100B800041F00071416008BD0010024000000140CA
:100B9000002809DB00F01F0201219140400980007C
:100BA00000F1E020C0F8001170470000F0B40E4BD7
:100BB0001B680C46C3F30223C3F10705042D00D9BB
:100BC0000425191D072901D2002300E0DB1E0126A0
:100BD00006FA05F1491E214099409E40761E1640B6
:100BE0003143F0BC01F00EB90CED00E0064900F015
:100BF000070208684FF6FF03184040EA0220034A44
:100C000010430860704700000CED00E00000FA059A
:100C10002DE9F0470F46050061D0434E306800F0E3
:100C20000700B84209D2306820F00700384330602E
:100C3000306800F00700B84251D128683B4C81076A
:100C400012D5400703D5606840F4E0606060287802
:100C5000000703D5606840F4605060606068A96870
:100C600020F0F000084360602878C00728D068684A
:100C7000012810D02168022810D0890700292EDA17
:100C8000616821F0030101436160FFF723FF8046A3
:100C900041F288390DE021688903EFE78901EDE72A
:100CA000FFF718FFA0EB0801494502D90320BDE872
:100CB000F0876068696800F00C00B0EB810FEFD13D
:100CC000306800F00700B8420BD9306820F0070008
:100CD00038433060306800F00700B84201D001208E
:100CE000E5E72878400705D56068E96820F4E0600A
:100CF000084360602878000706D56068296920F4F9
:100D0000605040EAC100606000F038F86168084A4D
:100D1000C1F30311515CC8400649086006480068E9
:100D2000FFF7F8FE0020C2E700200240001002405A
:100D3000F22200080C0000200400002004480549AD
:100D400000684968044AC1F30221515CC8407047F9
:100D50000C0000200010024002230008044805494E
:100D600000684968044AC1F3C221515CC840704719
:100D70000C00002000100240022300080E4A5168B7
:100D80000E4801F00C03042B11D0082B0FD10C4896
:100D9000C1F38343C903C05C0AD55168084AC1F353
:100DA0004041921E515C054A5043B0FBF1F0704740
:100DB00004494843704700000010024000127A00C6
:100DC000E222000800093D002DE9F84F040070D030
:100DD0002078C04DC00749D06868C0F38100012861
:100DE00007D06868C0F38100022809D16868C00391
:100DF00006D52868800339D560680028E7D035E03B
:100E00006068B0F5803F0BD010B1B0F5A02F11D0C5
:100E1000286820F480302860286820F4802002E0D0
:100E2000286840F480302860606890B1FFF752FE77
:100E300006460AE0286840F480202860F0E700BFFA
:100E4000FFF748FE801B642873D828688003F7D515
:100E50000CE0FFF73FFE064605E000BFFFF73AFE55
:100E6000801B6428F0D828688003F7D420789A4E35
:100E700080074FF001094FF0000839D5686810F07D
:100E80000C0F07D06868C0F38100022809D1686898
:100E9000C00306D42868800714D52069012808D12A
:100EA00010E02069B0B1C6F80090FFF713FE0746C6
:100EB00005E00AE1FFF70EFEC01B0228C4D828682F
:100EC0008007F7D52868616920F0F80040EAC10082
:100ED00028600DE0C6F80080FFF7FCFD074604E03F
:100EE000FFF7F8FDC01B022823D828688007F7D435
:100EF000207800072CD57948A169D9B1C0F80090B5
:100F0000FFF7E8FD074604E0FFF7E4FDC01B0228F9
:100F10000FD8686A8007F7D571484FF4FA51006816
:100F2000B0FBF1F0009000BF0098411E0091FAD292
:100F30000EE080E0C0F80080FFF7CCFD074604E03B
:100F4000FFF7C8FDC01B022875D8686A8007F7D470
:100F50002078400760D5E8690027C00008D4E86918
:100F600040F08050E861E869012700F0805000906F
:100F70005C480168C90513D40168834641F4807157
:100F80000160FFF7A7FD824606E000BFFFF7A2FD64
:100F9000A0EB0A0064284ED8DBF80000C005F5D5A8
:100FA000E06801280AD008B1052813D0286A20F08B
:100FB00001002862286A20F0040002E0286A40F05C
:100FC00001002862E06841F2883B98B1FFF782FD9A
:100FD00082460BE0286A40F004002862EEE700BF7A
:100FE000FFF778FDA0EB0A0159455AD8286A800717
:100FF000F6D50CE0FFF76EFD824605E0FFF76AFDCF
:10100000A0EB0A0159454CD8286A8007F6D41FB1D5
:10101000E86920F08050E861E06988B36968C1F34D
:101020008101022944D00228C6F8608004D0FFF76D
:1010300051FD044638E034E0FFF74CFD074604E07C
:10104000FFF748FDC01B02282BD828688001F7D481
:10105000206AB0F5803F05D16868A16820F40030AF
:1010600008436860D4E908010843696821F47411F1
:1010700008436860C6F86090FFF72CFD044606E060
:1010800025E000BFFFF726FD001B022809D82868CD
:101090008001F7D51BE000BFFFF71CFD001B0228F5
:1010A00002D90320BDE8F88F28688001F4D40EE04F
:1010B0000128F7D06868226A00F48031914204D197
:1010C000616A00F47010884201D00120EAE7002034
:1010D000E8E7000000100240000042428004424263
:1010E0000C0000200070004010B5401EB0F1807F61
:1010F00001D3012010BD4FF0E02460610F21601783
:1011000000F080FE0020A06107202061002010BDBB
:1011100070477047F8B5016804460868CA684B69AB
:1011200010F00F0F4FF0000559D003F0010602F444
:101130009077374365D0C10705D0D10503D5616CE1
:1011400041F001016164410705D5D90703D0616C05
:1011500041F002016164810705D5D90703D0616CB4
:1011600041F004016164010707D502F02001314319
:1011700003D0616C41F008016164616C00293AD0D0
:10118000800604D5900602D5204600F002FD2068B6
:101190004069616CC0F38010090700D460B3204639
:1011A00000F0D0FC20684069400621D5206814304A
:1011B00050E8001F21F0400140E80012002AF5D15C
:1011C000E06BA8B16D494163E06BFFF7D3FA0028EB
:1011D00011D0E06B416B01B0BDE8F04008478306D9
:1011E0000FD593060DD52046BDE8F84000F0D1BCE0
:1011F0002046FFF78EFFF8BD2046FFF78AFF6564A3
:10120000F8BD266B2023012E7CD1C6067AD5D606E2
:1012100078D508684868009048694FF00206400693
:1012200040D5E16B086840680004000CE8D0A28D4E
:101230008242E5D9E085886920282DD020680C30CD
:1012400050E8001F21F4807140E80012002AF5D117
:101250002068143050E8001F21F0010140E800121E
:10126000002AF5D12068143050E8001F21F0400119
:1012700040E80012002AF5D184F842302563206846
:101280000C3050E8001F21F0100140E80012002A45
:10129000F5D1E06BFFF74AFA6663A08DE18D401A45
:1012A00081B22AE0A08DE18D401A81B2E08D002844
:1012B000A6D00029A4D022680C3252E8000F20F4F6
:1012C000907042E80007002FF5D12068143050E8F4
:1012D000002F22F0010240E80027002FF5D184F80A
:1012E0004230256320680C3050E8002F22F01002B5
:1012F00040E80023002BF5D166632046FFF708FF86
:10130000F8BDFFE705062BD5150629D594F8410051
:101310002128F5D1A068B0F5805F01D12069B0B176
:10132000206A411C2162216800784860E08C401EE0
:101330000004000CE084E3D12068C16821F0800142
:10134000C1602068C16841F04001C160D8E7206AEF
:101350000088C0F308004860206A801C2062E5E72E
:101360004006CDD55006CBD5CA68204622F04002B3
:10137000CA6084F8413000F047F9C1E7351B000826
:1013800070B5040004D094F84100002510B106E0C7
:10139000012070BD84F84050204600F023F824203E
:1013A00084F841002068C16821F40051C1602046E2
:1013B00000F05EFC2068016921F490410161206821
:1013C000416921F02A0141612068C16841F400515E
:1013D000C1606564202084F8410084F842006563A0
:1013E000002070BD70B586B0002400940194029472
:1013F000039403682E482D4E022103220515B342A3
:1014000026D1836943F480438361836903F4804375
:101410000493836943F0040383618069254E00F0DF
:10142000040004900802CDE90001039269463046A9
:10143000FFF74AFACDE90054694630460294FFF7B7
:1014400043FA002211462520FFF7B0FB252028E0B3
:10145000194EB34227D1C36943F48023C361C369E2
:1014600003F480230493836943F008038361806954
:10147000CDE9005100F00800CDE903200F4D694689
:101480002846FFF721FAE814CDE90004694628460A
:101490000294FFF719FA002211462720FFF786FB76
:1014A0002720FFF775FB06B070BD00000038014033
:1014B000001002400008014000480040000C0140BC
:1014C0002DE9F843044690F84200994616460D4629
:1014D000202802D00220BDE8F883ADB1A6B10020DB
:1014E0006064222184F842102063FFF7F3FAA68596
:1014F0008046E685A0684FF48057B84201D1206944
:1015000020B12E46002526E00120E4E7002622E057
:101510004346002220212046CDF8009000F004FC34
:1015200008B10320D7E726B1A068B8421BD038B174
:1015300008E020684068C0F3080025F8020B07E0C7
:10154000206980B12068406800F07F0006F8010B38
:10155000E08D401EE085E08D0028D9D1202084F860
:1015600042000020B7E720684068EFE770472DE9A8
:10157000F843044690F841001F4616460D462028C1
:1015800002D00220BDE8F8837DB176B1002060640E
:10159000212084F84100FFF79DFAA6848046E68466
:1015A000A068B0F5805F02D003E00120EAE720697F
:1015B00010B12E4600250EE000260CE080212046CA
:1015C00000F0B2FBA0B9AEB116F8010B216848607B
:1015D000E08C401EE084E08C43464FF00002009710
:1015E0000028EBD14FF04001204600F09DFB30B1C8
:1015F0000320C7E735F8020BC0F30800E6E7202018
:1016000084F841000020BDE77047FEE71CB5EF21DC
:101610008DF8001001218DF801101449034615487A
:1016200049680A0E8DF802200A0C8DF803200A0A78
:101630008DF804208DF8051007218DF80610002183
:101640008DF807104FF480620949FFF739FF072230
:1016500007496846FEF7BCFD28B969460448FEF70D
:10166000A5FD002800D100201CBD000010000020B6
:10167000B80000207000002070B51E4D002410211D
:101680002846FFF71DFA60B91420FFF70BF9102167
:101690002846FFF715FA0028F9D01420FFF702F9C1
:1016A000012408212846FFF70BFA60B91420FFF740
:1016B000F9F808212846FFF703FA0028F9D014208A
:1016C000FFF7F0F802240C4D01212846FFF7F8F946
:1016D00001280CD11420FFF7E5F801212846FFF777
:1016E000EFF90128F9D01420FFF7DCF80324204695
:1016F00070BD000000180140000801402DE9F043D2
:1017000085B00024274800940194029403948169D1
:1017100041F040018161816901F0400104918169DA
:1017200041F004018161816901F004010491816942
:1017300041F0080181618069DFF86C8000F00800E9
:101740000490002220214046FFF7BFF9DFF85C90AB
:10175000002220214846FFF7B8F9182001258DE81E
:10176000310069464046FFF7AFF820270226009770
:101770000396CDE9015469464046FFF7A5F8CDE947
:10178000005469460A480296FFF79EF800970396B0
:10179000CDE9015469464846FFF796F805B0BDE823
:1017A000F08300000010024000180140000C0140CE
:1017B000000801400C4810B50A4901604FF4E131BE
:1017C0004160002181600C22C160C0E90412816186
:1017D000C161FFF7D5FD002803D0BDE81040FEF73A
:1017E000A3BF10BD00380140280000200C4810B5F0
:1017F0000A4901604FF461414160002181600C227F
:10180000C160C0E904128161C161FFF7B9FD002820
:1018100003D0BDE81040FEF787BF10BD0048004070
:1018200070000020FEE7FEE770B50C46054600F0AC
:1018300025F900F001F9012000F00CFA072000F072
:101840002DF90C2000F006FA280A00F003FAE8B29D
:1018500000F000FA200A00F0FDF9E0B200F0FAF919
:10186000E8B200EB152000EB1420E1B2084414307C
:1018700000F0FAF84FF4FA60FFF7C8FE08B1407ABA
:1018800070BDFF2070BD10B5044600F0F7F800F001
:10189000D3F8012000F0DEF9042000F0FFF8022068
:1018A00000F0D8F9204600F0D5F9E01D00F0DCF892
:1018B0004FF4FA60FFF7AAFE08B1407A10BDFF208E
:1018C00010BD10B500F0DAF800F0B6F8012000F015
:1018D000C1F9032000F0E2F8012000F0BBF9052077
:1018E00000F0C2F84FF4FA60FFF790FE08B1407ABA
:1018F00010BDFF2010BD2DE9F0411E4614460D46D7
:10190000074600F0BBF800F097F8012000F0A2F9BC
:10191000082000F0C3F81B2000F09CF9384600F0C6
:1019200099F9280A00F096F9E8B200F093F9200A34
:1019300000F090F9E0B200F08DF907EB1520E9B264
:10194000084400EB1420E1B20844243000F08CF885
:101950004FF4FA60FFF75AFE58B1C27A837A417A9F
:1019600002EB03223280427B007B02EB002070807E
:1019700000E0FF210846BDE8F08110B500F07EF8D8
:1019800000F05AF8012000F065F9032000F086F815
:10199000032000F05FF9072000F066F84FF4FA60CA
:1019A000FFF734FE08B1407A10BDFF2010BD10B51E
:1019B00000F064F800F040F8012000F04BF903203B
:1019C00000F06CF8052000F045F9092000F04CF813
:1019D0004FF4FA60FFF71AFE08B1407A10BDFF20FD
:1019E00010BD70B50C46054600F048F800F024F82C
:1019F000012000F02FF9062000F050F8062000F03A
:101A000029F9284600F026F9200A00F023F9E0B26F
:101A100000F020F905EB1420E1B208440D3000F08D
:101A200023F84FF4FA60FFF7F1FD08B1407A70BD7A
:101A3000FF2070BD7047704710B50A4C6068000EFB
:101A400000F008F96068C0F3074000F003F9A088CF
:101A5000C0F3072000F0FEF82079BDE8104000F048
:101A6000F9B800001000002010B50446000A00F08C
:101A7000F1F8E0B2BDE8104000F0ECB810B54FF45A
:101A800080610548FEF787FBEF2000F0E3F8BDE832
:101A90001040012000F0DEB8B800002010B5044668
:101AA000C0F3072000F0D6F8E0B2BDE8104000F027
:101AB000D1B8000010B5FEF70DFD0146BDE810409D
:101AC00001A000F07BB9000025730D0A00000000A2
:101AD000FFF706B830B58FB028216846FEF75BFBEC
:101AE00014210AA8FEF757FB01210804CDE90010D4
:101AF0000024029402250491CDE907504FF4E01030
:101B000009906846FFF760F908B172B6FEE70F204A
:101B1000CDE90A054FF48060CDE90C4002210AA806
:101B20000E94FFF775F8002801D072B6FEE70FB0EB
:101B300030BD704710B5406A0021C185C184FFF7F0
:101B4000E8FA10BD01680C3151E8002F22F49072C0
:101B500041E80023002BF5D10168143151E8002F32
:101B600022F0010241E80023002BF5D1016B01298D
:101B700009D101680C3151E8002F22F0100241E830
:101B80000023002BF5D1202180F8421000210163B1
:101B9000704708B590F84210222901D0022008BDF4
:101BA00082684FF480539A4201D1016921B1816A60
:101BB0009A421BD04AB10AE00268816A5268C2F3B5
:101BC00008020A80816A891C08E0026972B1026811
:101BD000526802F07F020A70816A491C8162C18DDD
:101BE000491E0904090CC18503D01BE00268526834
:101BF000F1E70168CA6822F02002CA600168CA6879
:101C000022F48072CA6001684A6922F001024A61C6
:101C1000202180F8421000214163026B012A03D089
:101C2000FFF7A4FC002008BD016301680C3151E8F6
:101C3000002F22F0100241E80023002BF5D10168AB
:101C40000A68D20602D50A6849680091818DFFF7BB
:101C50005FFAE7E701B5FF23012269460348FFF772
:101C600086FC002800D0012008BD00007000002084
:101C700070B5044600680169E26821F440511143DF
:101C800001612169A0680843616908432168CA6845
:101C900041F20C639A430243CA6020684169A26919
:101CA00021F44071114341611E492068884202D1EC
:101CB000FFF754F801E0FFF741F800EBC00101EB3A
:101CC0000012606864218000B2FBF0F3B3FBF1F313
:101CD0006FF018067343B2FBF0F5B2FBF0F605EBBC
:101CE0008305322303EB0515B5FBF1F5B6FBF1F6E1
:101CF00005F0F00505EB0615B2FBF0F6B2FBF0F0CF
:101D0000B0FBF1F06FF01802504306EB800003EBDC
:101D10000010B0FBF1F0216800F00F00284488604B
:101D200070BD0000003801402DE9F041984617468B
:101D30000E460446069D27E0681C25D02DB1FEF70F
:101D4000C9FEA0EB0800A8421ED920680C3050E85C
:101D5000001F21F4D07140E80012002AF5D120685C
:101D6000143050E8001F21F0010140E80012002A61
:101D7000F5D1202084F8410084F84200002084F846
:101D800040000320BDE8F0812068006836EA0000CA
:101D900004D00020B842CFD00020F3E70120F9E7BB
:101DA0000148FFF7B7B90000280000200148FFF7FD
:101DB000B1B9000070000020FEE700000FB4054B31
:101DC00010B503A9044A029800F03CF810BC5DF875
:101DD00014FB000011210008240000200FB4084B60
:101DE00010B504A902AA039800F02CF8044602A931
:101DF000002000F087F9204610BC5DF814FB0000BD
:101E0000052100080907090E002804DB00F1E02085
:101E100080F80014704700F00F0000F1E02080F817
:101E2000141D704702E008C8121F08C1002AFAD129
:101E300070477047002001E001C1121F002AFBD14A
:101E4000704700002DE9FF4F8DB09B460F460446BA
:101E5000002606E025280BD05A460F999047641CAF
:101E6000761C20780028F5D111B03046BDE8F08FFF
:101E70000025A8460122984900E0054314F8013FD7
:101E8000203B02FA03F00842F7D120782E2817D120
:101E900014F8010F45F004052A280ED06FF02F0228
:101EA0002078A0F1300109290AD808EB880102EB5B
:101EB000410100EB0108641CF2E757F8048B641C35
:101EC00020786C280DD004DC4C2812D06A2811D15F
:101ED00004E074280DD07A280CD10AE045F40015EE
:101EE00007E0617845F48015814202D1641C05F554
:101EF0008015641C2278692A45D008DC002AB3D0FA
:101F0000582A69D0632A10D0642A08D13BE0702A8D
:101F100067D0732A13D0752A5CD0782A5CD010461B
:101F20005A460F999047761CD3E017F8040B8DF8AA
:101F3000000000208DF80100E946012003E057F879
:101F4000049B4FF0FF3069074FF0000501D40AE011
:101F50006D1C45450DDA8542FADB19F8051000299C
:101F6000F6D106E06D1C8542FCDB19F8051000294E
:101F7000F8D12E4404E019F8010B5A460F99904706
:101F80006D1EF8D2A5E00A200021CDE90801C5F3B5
:101F9000025002280DD001CFC117031E71F10003BA
:101FA0000DDA4FF0000CD0EB0C006CEB01012D238F
:101FB00008E0FF1D27F00707F7E80201EDE72B0512
:101FC00004D52B238DF8283001233BE0EB0739D0D3
:101FD0002023F7E70A2000E010200021CDE90801C6
:101FE00007E01020002145F00405CDE908014FF07D
:101FF0000808C5F3025002280FD001CF00214FF08E
:10200000000A2B071FD5702A0DD0DDE908C38CF01C
:10201000100C5CEA030C0CD015E0FF1D27F007073D
:10202000F7E80201EBE740228DF828204FF0010A83
:102030000BE050EA010306D030238DF828308DF8EC
:10204000292002239A46582A04D024A20DF12009FF
:102050000B9209E026A2F9E7DDE90823FEF7C5F8AF
:102060000B9B9B5C09F8013D50EA0102F4D1ADEBFA
:10207000090020300890680701D44FF00108089942
:10208000884502DDA8EB010000E000208046002525
:1020900006E00AA85A46405D0F9990476D1C761CD1
:1020A0005545F6DB04E030205A460F999047761CE0
:1020B000B8F10001A8F10108F5DC05E019F8010B01
:1020C0005A460F999047761C0899481E0890002997
:1020D000F4DC641CC5E6000009280100303132330D
:1020E0003435363738396162636465660000000054
:1020F000303132333435363738394142434445463E
:10210000000000000A68531C0B601070704700004C
:1021100013B54FF6FF73012269460248FFF727FA0D
:1021200000981CBD28000020FEF7E2FCFFF7D2FC5F
:10213000FFF7E4FAFFF73EFBFFF758FB15A0FFF7A8
:102140003DFEFEF7A5F8040012D018A0FFF736FEFA
:10215000FFF792FA01280DD0022813D00328F7D1F7
:10216000002CF5D118A0FFF729FE00F049F8EFE7A1
:1021700017A0EBE7002CEBD11CA0FFF71FFEFEF72A
:10218000A9F8E5E7002CE3D11AA0FFF717FEFEF748
:1021900073F9DDE74153363038D6B8CEC6C4A3BF95
:1021A000E9B2E2CAD4BFAACABC0D0A004153363014
:1021B00038D6B8CEC6C4A3BFE9B3F5CABCBBAFCA54
:1021C000A7B0DC0D0A000000CBA2D6B8CEC60A002C
:1021D0004153363038D6B8CEC6C4A3BFE9B3F5CA2A
:1021E000BCBBAFB3C9B9A60D0A000000C2BCD6B8CB
:1021F000CEC60A00C9BEB3FDD6B8CEC60A000000DE
:1022000086B040F2DC5400BFFFF75BFB08B118A0BA
:1022100017E01BA0FFF7D2FD0120FFF734FB78B9D0
:102220001BA0FFF7CBFD05AB632200210120FFF7C8
:1022300062FB48B11AA0FFF7C1FD2046FEF732FB52
:102240001AA0FFF7BBFDDFE71BA0FFF7B7FDBDF846
:102250001630BDF814201CA16846FFF7BFFD694683
:102260001DA0FFF7ABFD2046FEF71CFBE5E70000D5
:10227000BBF1C8A1CDBCCFF1CAA7B0DC0A000000F9
:10228000BBF1C8A1CDBCCFF1B3C9B9A60A0000000B
:10229000C9FAB3C9CCD8D5F7B3C9B9A60A000000AA
:1022A000D1E9D6A4CAA7B0DC0D0A0000C7EBB0B4D0
:1022B000CAD6D6B80D0A0000D6B8CEC6D1E9D6A483
:1022C000B3C9B9A6000000002049443A256420B5EE
:1022D000C3B7D63A2564200025730D0A000000001C
:1022E000010202030405060708090A0B0C0D0E0F74
:1022F00010100000000000000000010203040607A7
:102300000809000000000102030400002C2300085B
:102310000000002028000000241E000854230008AC
:102320002800002090080000341E00080100000072
:1023300010000000000000000024F4000000000075
:10234000FFFFFFFF0100071300000000001B00005B
:042350000000000089
:0400000508000131BD
:00000001FF
