:020000040800F2
:10000000B008002045010008B7130008A912000835
:10001000B513000811020008C11600080000000016
:10002000000000000000000000000000BB130008FA
:100030001302000800000000B9130008BD130008F7
:100040005F0100085F0100085F0100085F01000810
:100050005F0100085F0100085F0100085F01000800
:100060005F0100085F0100085F0100085F010008F0
:100070005F0100085F0100085F0100085F010008E0
:100080005F0100085F0100085F0100085F010008D0
:100090005F0100085F0100085F0100085F010008C0
:1000A0005F0100085F0100085F0100085F010008B0
:1000B0005F0100085F0100085F0100085F010008A0
:1000C0005F0100085F0100085F0100085F01000890
:1000D0005F010008A9160008B51600085F010008B6
:1000E0005F0100085F0100085F0100085F01000870
:1000F0005F0100085F0100085F0100085F01000860
:100100005F0100085F0100085F0100085F0100084F
:100110005F0100085F0100085F0100085F0100083F
:100120005F0100085F0100085F0100085F0100082F
:10013000DFF80CD000F05AF800480047FD1800081E
:10014000B00800200648804706480047FEE7FEE763
:10015000FEE7FEE7FEE7FEE7FEE7FEE7FEE7FEE777
:100160001F14000831010008D2B201E000F8012B91
:10017000491EFBD270470022F6E710B513460A4627
:1001800004461946FFF7F0FF204610BD30B505467E
:100190002A460B4612F8010B13F8014B08B1A04296
:1001A000F8D01CB1002802D06D1CF1E7284630BD04
:1001B000421C10F8011B0029FBD1801A704730B592
:1001C0000B46014600202022012409E021FA02F515
:1001D0009D4205D303FA02F5491B04FA02F52844AF
:1001E000151EA2F10102F1DC30BD0000064C074DE6
:1001F00006E0E06840F0010394E8070098471034F7
:10020000AC42F6D3FFF798FF0C1C00082C1C00082A
:10021000FEE7704710B54FF480610348FFF7ABFF6E
:1002200002490020488010BDAC00002010000020D2
:1002300010B5294800F048FF01222849264800F05F
:10024000AFFFFFF7E7FF26A001F058FA4FF4FA746A
:1002500002E0204600F096F923A124A000F0A0F8C7
:100260000028F6D123A001F049FA02E0204600F070
:1002700089F91DA122A000F093F80028F6D123A04F
:1002800001F03CFA02E0204600F07CF916A122A021
:1002900000F086F80028F6D123A001F02FFA02E042
:1002A000204600F06FF910A123A000F079F8002893
:1002B000F6D125A001F022FA02E0204600F062F912
:1002C00024A127A000F06CF80028F6D1BDE810406A
:1002D0002DA001F013BA00006400002010000020DF
:1002E000312E2041540D0A004F4B000041540D0A9D
:1002F00000000000322E205253540D0A000000006E
:1003000041542B5253540D0A00000000332E204359
:10031000574D4F44450D0A0041542B43574D4F4410
:10032000453D310D0A000000342E2041542B435727
:10033000444843500D0A000041542B43574448435E
:10034000503D312C310D0A00352E2043574A415083
:100350000D0A00005749464920474F542049500094
:1003600041542B43574A41503D224368616E6E65AC
:100370006C5F322E3447222C2270617373776F7258
:1003800064220D0A00000000362E204553503832FA
:10039000363620496E6974204F4B0D0A000000006C
:1003A00070B50E460546C824FFF702FF82B2294603
:1003B0000B4801F086F90EE000F016F840B931461E
:1003C0000848FFF7E3FE18B1FFF724FF002070BDD7
:1003D0000A2000F0D7F8641EE4B2EDD2012070BD0F
:1003E00064000020AC0000200648418831B18288BA
:1003F000914205D100214180084670470120704795
:100400008180FBE71000002072B6FEE710B590F87F
:1004100021100022022905D00421816380F82020C8
:10042000012010BD01680B6823F00E030B6001680A
:100430000B6823F001030B6090F84030C46B01217E
:1004400001FA03F3636080F8211080F82020104641
:1004500010BD00002DE9F05F90F821100024022962
:1004600003D004218163012485E001680A6822F039
:100470000E020A6001680A6822F001020A603F4E1B
:100480003E4FB215DFF8F4C0DFF8F090DFF8ECA0D3
:10049000DFF8E8B0DFF8E4E00168783F1301150207
:1004A000ACF1640CA9F15009AAF13C0AABF1280B9C
:1004B000AEF1140E4FF48018B14227D9B9420ED0D4
:1004C000614512D049451DD0514518D0594518D025
:1004D000714501D1424615E0294EB14201D10122B8
:1004E00010E0274E1436B14201D110220AE0244E0A
:1004F0002836B14206D0224A3C32914201D11A46F6
:1005000000E02A461E49091F0A602BE0B94213D0B9
:10051000614517D0494522D051451DD059451DD0C0
:10052000714501D142461AE0B14202D14FF08072CA
:1005300015E0134EB14201D1012210E0104E1436E5
:10054000B14201D110220AE00D4E2836B14206D048
:100550000B4A3C32914201D11A4600E02A46074933
:1005600080394A60012180F82110002180F8201094
:10057000416B01B188472046BDE8F09F80000240F2
:100580000804024070B5044600F010F90546601CEE
:1005900002D004480078044400F008F9401BA0424F
:1005A000FAD370BD000000202DE9F84FDFF8C891A4
:1005B0000024A9F1040B23460F2709F1040AABF12B
:1005C000040ED1E00125A54006EA0502AA4276D133
:1005D000DFF8A8C14E68A6EB0C0866452BD00DDCF1
:1005E000032E34D005DC36B3012E19D0022E2FD1C4
:1005F0001BE0112E16D0122E2AD119E0B8F5881F53
:1006000019D006DCB8F5803F15D0B8F5801F1FD192
:1006100011E0B8F5001F0ED0B8F5041F18D10AE09C
:10062000CB6815E0CB681B1D12E0CB6808330FE0E8
:10063000CB680C330CE08B682BB1012B4FF0080317
:1006400003D0456104E0042302E0056100E00023DB
:10065000FF2A01D8064601E000F104064FEA8405AE
:1006600001D9A5F12005D6F8008007FA05FC28EA93
:100670000C0803FA05F548EA0508C6F800804D683D
:10068000ED0070D53E4DAE6946F00106AE61AD6934
:1006900024F0030605F0010500953A4D06EB050C24
:1006A000DCF80850A607360F07FA06F825EA080511
:1006B000DFF8D480404503D14FF0000825E052E038
:1006C000DFF8C880404502D14FF001081DE0DFF897
:1006D000C080404502D14FF0020816E0DFF8B48038
:1006E000404502D14FF003080FE0DFF8AC804045F1
:1006F00002D14FF0040808E0DFF8A080404502D1A5
:100700004FF0050801E04FF0060808FA06F848EA3D
:100710000508CCF808804D68D9F80060ED024D4618
:1007200001D5164300E096432E604D68DAF800606C
:10073000AD02554601D5164300E096432E604D6844
:10074000DBF80060AD035D4601D5164300E096433B
:100750002E604D68DEF80060ED03754601D5164346
:1007600000E096432E60641C0A681646E2407FF45F
:1007700029AFBDE8F88F0000080401400000111007
:10078000001002400000014000080140000C014040
:10079000001001400014014000180140001C0140FD
:1007A0000AB1016170470904FBE700000148806855
:1007B0007047000000000020024881680278114460
:1007C0008160704700000020074810B5016841F0C3
:1007D00010010160032000F075F80F2000F006F80A
:1007E00000F024F8002010BD0020024070B50D4D2F
:1007F00004464FF47A712878B1FBF0F00A49096891
:10080000B1FBF0F000F0DCFA48B9102C07D200225E
:100810002146501E00F036F800206C6070BD0120AB
:1008200070BD0000000000200C0000200C4808B53E
:10083000816941F001018161816901F0010100914B
:10084000C16941F08051C161C06900F080500090E1
:100850000448416821F0E06141F00071416008BD49
:100860000010024000000140002809DB00F01F02D8
:10087000012191404009800000F1E020C0F8001102
:1008800070470000F0B40E4B1B680C46C3F3022304
:10089000C3F10705042D00D90425191D072901D22C
:1008A000002300E0DB1E012606FA05F1491E214067
:1008B00099409E40761E16403143F0BC00F042BF86
:1008C0000CED00E0064900F0070208684FF6FF0350
:1008D000184040EA0220034A1043086070470000B5
:1008E0000CED00E00000FA052DE9F0470F46050089
:1008F00061D0434E306800F00700B84209D230683A
:1009000020F0070038433060306800F00700B8423C
:1009100051D128683B4C810712D5400703D5606848
:1009200040F4E06060602878000703D5606840F418
:10093000605060606068A96820F0F0000843606063
:100940002878C00728D06868012810D021680228BC
:1009500010D0890700292EDA616821F003010143D4
:100960006160FFF723FF804641F288390DE021687E
:100970008903EFE78901EDE7FFF718FFA0EB080116
:10098000494502D90320BDE8F0876068696800F036
:100990000C00B0EB810FEFD1306800F00700B842D7
:1009A0000BD9306820F0070038433060306800F021
:1009B0000700B84201D00120E5E72878400705D5B7
:1009C0006068E96820F4E060084360602878000708
:1009D00006D56068296920F4605040EAC100606073
:1009E00000F038F86168084AC1F30311515CC8404F
:1009F0000649086006480068FFF7F8FE0020C2E7D5
:100A000000200240001002406A1A00080C0000207A
:100A1000040000200448054900684968044AC1F3FD
:100A20000221515CC84070470C00002000100240B9
:100A30007A1A00080448054900684968044AC1F365
:100A4000C221515CC84070470C00002000100240D9
:100A50007A1A00080E4A51680E4801F00C03042B64
:100A600011D0082B0FD10C48C1F38343C903C05CDC
:100A70000AD55168084AC1F34041921E515C054AAB
:100A80005043B0FBF1F07047044948437047000001
:100A90000010024000127A005A1A000800093D00B6
:100AA0002DE9F84F040070D02078C04DC00749D020
:100AB0006868C0F38100012807D06868C0F381002E
:100AC000022809D16868C00306D52868800339D593
:100AD00060680028E7D035E06068B0F5803F0BD053
:100AE00010B1B0F5A02F11D0286820F48030286014
:100AF000286820F4802002E0286840F480302860D4
:100B0000606890B1FFF752FE06460AE0286840F49C
:100B100080202860F0E700BFFFF748FE801B6428B4
:100B200073D828688003F7D50CE0FFF73FFE064630
:100B300005E000BFFFF73AFE801B6428F0D8286864
:100B40008003F7D420789A4E80074FF001094FF0C8
:100B5000000839D5686810F00C0F07D06868C0F33A
:100B60008100022809D16868C00306D4286880077C
:100B700014D52069012808D110E02069B0B1C6F869
:100B80000090FFF713FE074605E00AE1FFF70EFEAF
:100B9000C01B0228C4D828688007F7D52868616977
:100BA00020F0F80040EAC10028600DE0C6F800809F
:100BB000FFF7FCFD074604E0FFF7F8FDC01B022825
:100BC00023D828688007F7D4207800072CD57948E7
:100BD000A169D9B1C0F80090FFF7E8FD074604E02D
:100BE000FFF7E4FDC01B02280FD8686A8007F7D51D
:100BF00071484FF4FA510068B0FBF1F0009000BF6B
:100C00000098411E0091FAD20EE080E0C0F800800A
:100C1000FFF7CCFD074604E0FFF7C8FDC01B022824
:100C200075D8686A8007F7D42078400760D5E869EE
:100C30000027C00008D4E86940F08050E861E86906
:100C4000012700F0805000905C480168C90513D46A
:100C50000168834641F480710160FFF7A7FD824679
:100C600006E000BFFFF7A2FDA0EB0A0064284ED803
:100C7000DBF80000C005F5D5E06801280AD008B10E
:100C8000052813D0286A20F001002862286A20F085
:100C9000040002E0286A40F001002862E06841F2A6
:100CA000883B98B1FFF782FD82460BE0286A40F04E
:100CB00004002862EEE700BFFFF778FDA0EB0A0111
:100CC00059455AD8286A8007F6D50CE0FFF76EFD23
:100CD000824605E0FFF76AFDA0EB0A0159454CD8B2
:100CE000286A8007F6D41FB1E86920F08050E861D7
:100CF000E06988B36968C1F38101022944D0022800
:100D0000C6F8608004D0FFF751FD044638E034E0B7
:100D1000FFF74CFD074604E0FFF748FDC01B022823
:100D20002BD828688001F7D4206AB0F5803F05D120
:100D30006868A16820F4003008436860D4E90801BD
:100D40000843696821F4741108436860C6F860902C
:100D5000FFF72CFD044606E025E000BFFFF726FD67
:100D6000001B022809D828688001F7D51BE000BFC6
:100D7000FFF71CFD001B022802D90320BDE8F88FF5
:100D800028688001F4D40EE00128F7D06868226A50
:100D900000F48031914204D1616A00F470108842FD
:100DA00001D00120EAE70020E8E70000001002403F
:100DB00000004242800442420C00002000700040CB
:100DC00010B5401EB0F1807F01D3012010BD4FF05F
:100DD000E02460610F21601700F0B4FC0020A061E6
:100DE00007202061002010BD7047704710F8411F98
:100DF0004078084370470000F8B501680446086869
:100E0000CA684B6910F00F0F4FF0000559D003F07E
:100E1000010602F49077374365D0C10705D0D105AC
:100E200003D5616C41F001016164410705D5D90723
:100E300003D0616C41F002016164810705D5D907D7
:100E400003D0616C41F004016164010707D502F031
:100E50002001314303D0616C41F008016164616C91
:100E600000293AD0800604D5900602D5204600F02D
:100E700006FB20684069616CC0F38010090700D44C
:100E800060B3204600F0D4FA20684069400621D5BE
:100E90002068143050E8001F21F0400140E80012A3
:100EA000002AF5D1E06BA8B16D494163E06BFFF713
:100EB000D1FA002811D0E06B416B01B0BDE8F040E1
:100EC000084783060FD593060DD52046BDE8F840A8
:100ED00000F0D5BA2046FFF788FFF8BD2046FFF79F
:100EE00084FF6564F8BD266B2023012E7CD1C606E5
:100EF0007AD5D60678D508684868009048694FF0DA
:100F00000206400640D5E16B086840680004000C0A
:100F1000E8D0A28D8242E5D9E085886920282DD0CD
:100F200020680C3050E8001F21F4807140E8001266
:100F3000002AF5D12068143050E8001F21F001018B
:100F400040E80012002AF5D12068143050E8001F54
:100F500021F0400140E80012002AF5D184F8423027
:100F6000256320680C3050E8001F21F0100140E894
:100F70000012002AF5D1E06BFFF748FA6663A08DF6
:100F8000E18D401A81B22AE0A08DE18D401A81B234
:100F9000E08D0028A6D00029A4D022680C3252E8A7
:100FA000000F20F4907042E80007002FF5D1206870
:100FB000143050E8002F22F0010240E80027002FF3
:100FC000F5D184F84230256320680C3050E8002FBA
:100FD00022F0100240E80023002BF5D16663204682
:100FE000FFF702FFF8BDFFE705062BD5150629D54B
:100FF00094F841002128F5D1A068B0F5805F01D1B7
:101000002069B0B1206A411C2162216800784860E3
:10101000E08C401E0004000CE084E3D12068C1682D
:1010200021F08001C1602068C16841F04001C160C9
:10103000D8E7206A0088C0F308004860206A801C56
:101040002062E5E74006CDD55006CBD5CA682046DC
:1010500022F04002CA6084F8413000F024F9C1E770
:101060002114000870B5040004D094F84100002554
:1010700010B106E0012070BD84F84050204600F019
:1010800023F8242084F841002068C16821F400512D
:10109000C160204600F054FA2068016921F49041B3
:1010A00001612068416921F02A0141612068C1681D
:1010B00041F40051C1606564202084F8410084F847
:1010C00042006563002070BD70B586B000240094B6
:1010D0000194029403942E4E03682E4902200322A9
:1010E0002D4DB34226D18B6943F480438B618B69CC
:1010F00003F4804304938B6943F004038B61896993
:10110000039201F0040104910102CDE90010694647
:101110002846FFF749FA2815CDE900046946284614
:101120000294FFF741FA002211462520FFF7AAFB9F
:10113000252028E0194EB34227D1CB6943F4003370
:10114000CB61CB6903F4003304938B6943F0040350
:101150008B618969039201F0040104910421CDE9B6
:10116000001069462846FFF71FFA0820CDE9000461
:10117000694628460294FFF717FA002211462620F6
:10118000FFF780FB2620FFF76FFB06B070BD000065
:1011900000380140001002400008014000440040B7
:1011A00090F84230202B01D00220704721B11AB1B3
:1011B0000023036300F020BA0120704710B50068D7
:1011C0000E49884218D10E4940F2FF3248889042B9
:1011D00006D300204880511C0A48FEF7CCFF04E0EB
:1011E000084B0A781A54401C4880BDE81040012280
:1011F00003490548FFF7D4BF10BD0000004400407C
:1012000010000020AC000020640000202DE9F8430D
:10121000044690F841001F4616460D46202802D08D
:101220000220BDE8F8837DB176B100206064212002
:1012300084F84100FFF7BAFAA6848046E684A068E5
:10124000B0F5805F02D003E00120EAE7206910B129
:101250002E4600250EE000260CE08021204600F0FE
:10126000E6F9A0B9AEB116F8010B21684860E08C30
:10127000401EE084E08C43464FF0000200970028B7
:10128000EBD14FF04001204600F0D1F930B10320FE
:10129000C7E735F8020BC0F30800E6E7202084F822
:1012A00041000020BDE77047FEE700002DE9F04354
:1012B00085B000242048009401940294039481692D
:1012C00041F040018161816901F04001049181692F
:1012D00041F004018161816901F004010491816997
:1012E00041F0080181618069DFF8508000F008005A
:1012F0000490002220214046FFF752FADFF8409088
:10130000002220214846FFF74BFA2025022701261C
:1013100003970095CDE9016469464046FFF744F91B
:1013200003970095CDE9016469464846FFF73CF90B
:1013300005B0BDE8F0830000001002400018014035
:10134000000C01400C4810B50A4901604FF4E1312E
:101350004160002181600C22C160C0E904128161FA
:10136000C161FFF77FFE002803D0BDE81040FFF702
:101370004BB810BD003801401C0000200C4810B5CF
:101380000A4901604FF4E1314160002181600C2283
:10139000C160C0E904128161C161FFF763FE0028EA
:1013A00003D0BDE81040FFF72FB810BD0044004047
:1013B00064000020FEE7FEE770477047FFF7FCB9C6
:1013C00030B58FB028216846FEF7D5FE14210AA853
:1013D000FEF7D1FE01210804CDE90010002402949B
:1013E00002250491CDE907504FF4E01009906846BA
:1013F000FFF756FB08B172B6FEE70F20CDE90A05EC
:101400004FF48060CDE90C4002210AA80E94FFF74A
:101410006BFA002801D072B6FEE70FB030BD7047FE
:1014200010B5406A0021C185C184FFF7DEFC10BD04
:1014300001680C3151E8002F22F4907241E800233A
:10144000002BF5D10168143151E8002F22F0010280
:1014500041E80023002BF5D1016B012909D1016876
:101460000C3151E8002F22F0100241E80023002B3C
:10147000F5D1202180F8421000210163704708B5A2
:1014800090F84210222901D0022008BD82684FF452
:1014900080539A4201D1016921B1816A9A421BD0DD
:1014A0004AB10AE00268816A5268C2F308020A80FF
:1014B000816A891C08E0026972B10268526802F010
:1014C0007F020A70816A491C8162C18D491E09042C
:1014D000090CC18503D01BE002685268F1E701687E
:1014E000CA6822F02002CA600168CA6822F48072C9
:1014F000CA6001684A6922F001024A61202180F82D
:10150000421000214163026B012A03D0FFF756FE0F
:10151000002008BD016301680C3151E8002F22F062
:10152000100241E80023002BF5D101680A68D206B9
:1015300002D50A6849680091818DFFF755FCE7E7FD
:1015400070B5044600680169E26821F44051114316
:1015500001612169A0680843616908432168CA687C
:1015600041F20C639A430243CA6020684169A26950
:1015700021F44071114341611E492068884202D123
:10158000FFF758FA01E0FFF745FA00EBC00101EB65
:101590000012606864218000B2FBF0F3B3FBF1F34A
:1015A0006FF018067343B2FBF0F5B2FBF0F605EBF3
:1015B0008305322303EB0515B5FBF1F5B6FBF1F618
:1015C00005F0F00505EB0615B2FBF0F6B2FBF0F006
:1015D000B0FBF1F06FF01802504306EB800003EB14
:1015E0000010B0FBF1F0216800F00F002844886083
:1015F00070BD00000038014081628285C2850021F3
:101600004164222180F84210016921B10168CA6851
:1016100042F48072CA6001684A6942F001024A617C
:101620000068C16841F02001C160002070472DE9C9
:10163000F041984617460E460446069D27E0681C72
:1016400025D02DB1FFF7B2F8A0EB0800A8421ED9B3
:1016500020680C3050E8001F21F4D07140E80012DF
:10166000002AF5D12068143050E8001F21F0010154
:1016700040E80012002AF5D1202084F8410084F8C7
:101680004200002084F840000320BDE8F08120687B
:10169000006836EA000004D00020B842CFD0002015
:1016A000F3E70120F9E700000148FFF7A5BB0000C0
:1016B0001C0000200148FFF79FBB000064000020D1
:1016C000FEE72DE9F04115460F46804600244FF60F
:1016D000FF760FE03846FEF76BFD82B2334639469F
:1016E0004046FFF793FD4046FFF780FB2128FAD0E4
:1016F000641CA4B2AC42EDD3BDE8F0810FB4054B3D
:1017000010B503A9044A029800F03CF810BC5DF83B
:1017100014FB0000E5180008180000200FB4084B67
:1017200010B504A902AA039800F02CF8044602A9F7
:10173000002000F0D1F8204610BC5DF814FB00003A
:10174000D91800080907090E002804DB00F1E02081
:1017500080F80014704700F00F0000F1E02080F8DE
:10176000141D704702E008C8121F08C1002AFAD1F0
:1017700070477047002001E001C1121F002AFBD111
:10178000704700002DE9FF4F89B09B4604460025B5
:1017900006E025280BD05A460B999047641C6D1C17
:1017A00020780028F5D10DB02846BDE8F08F00273D
:1017B000B8460122474900E0074314F8013F203BA7
:1017C00002FA03F00842F7D120782E2819D114F834
:1017D000010F47F004072A280ED06FF02F0220785F
:1017E000A0F1300109290CD808EB880102EB410176
:1017F00000EB0108641CF2E70A98641C50F8048BA3
:101800000A9020780028CED0642808D0692806D015
:1018100075281ED05A460B9990476D1C58E00A99BE
:101820004FF00A0901C90A91002802DA40422D212D
:1018300002E0390504D52B218DF82010012103E0A9
:10184000F90704D02021F7E78A4608AE0DE0002111
:10185000FAE70A994FF00A0901C90A91F7E74946E0
:10186000FEF7ADFC303106F8011D0028F7D1ADEBD5
:10187000060000F12009780701D44FF00108C8459F
:1018800002DDA8EB090000E000208046002706E00A
:1018900008A85A46C05D0B9990476D1C7F1C5745A0
:1018A000F6DB04E030205A460B9990476D1CB8F1E6
:1018B0000001A8F10108F5DC05E016F8010B5A4615
:1018C0000B9990476D1CB9F10001A9F10109F4DCF5
:1018D000641C65E7092801000A68531C0B6010703E
:1018E0007047000013B54FF6FF73012269460248A6
:1018F000FFF78CFC00981CBD1C000020FEF764FF65
:10190000FFF75EFDFFF7D2FCFFF71CFDFFF736FD8A
:10191000FEF78EFC00F004F800F07CF8FEE7000013
:1019200010B517A0FFF7EAFE4FF4FA7402E0204664
:10193000FEF728FE18A11948FEF732FD0028F6D15F
:1019400017A0FFF7DBFE02E02046FEF71BFE12A108
:1019500019A0FEF725FD0028F6D122A0FFF7CEFE44
:1019600002E02046FEF70EFE0BA12348FEF718FD0D
:101970000028F6D1BDE8104020A0FFF7BFBE000050
:10198000312E204D515454205553455220434F4E33
:101990004649470D0A0000004F4B0000841A00081A
:1019A000322E434F4E4E454354204D515454204205
:1019B000524F4B45520D0A0041542B4D5154544344
:1019C0004F4E4E3D302C226D717474732E686563DA
:1019D0006C6F7564732E636F6D222C313838332C25
:1019E000300D0A00332E535542534352494245208D
:1019F000544F5049430D0A004C1B0008342E4D51E2
:101A0000545420434F4E4E45435420535543434571
:101A10004544000000B5C1B001231A460749684695
:101A2000FFF77CFE06A16846FEF7BAFC0028F9D154
:101A300004A0FFF763FE41B000BD0000901B00084A
:101A40004F4B00006D717474207075622073756364
:101A500063656564000000000102020304050607D7
:101A600008090A0B0C0D0E0F1010000000000000FA
:101A7000000001020304060708090000000001023B
:101A80000304000041542B4D5154545553455243C7
:101A900046473D302C312C226D7174745F73746D28
:101AA00033325F6F6E656E6574222C226A366D511B
:101AB000434F48373658222C2276657273696F6E11
:101AC0003D323031382D31302D3331267265733D42
:101AD00070726F64756374732532466A366D514354
:101AE0004F483736582532466465766963657325F5
:101AF00032466D7174745F73746D33325F6F6E65EF
:101B00006E65742665743D37353537333837313374
:101B100030266D6574686F643D6D64352673696742
:101B20006E3D344554765234524639423356593319
:101B300073454C6B66367177253344253344222C2C
:101B4000302C302C22220D0A0000000041542B4D75
:101B50005154545355423D302C22247379732F6ACB
:101B6000366D51434F483736582F6D7174745F731B
:101B7000746D33325F6F6E656E65742F64702F7095
:101B80006F73742F6A736F6E2F2B222C300D0A0027
:101B900041542B4D5154545055423D302C22247306
:101BA00079732F6A366D51434F483736582F6D7110
:101BB00074745F73746D33325F6F6E656E65742F0E
:101BC00064702F706F73742F6A736F6E222C227B78
:101BD0005C2269645C223A25645C2C5C2264705C43
:101BE000223A7B5C224C4F434B4C4F475C223A5B82
:101BF0007B5C22765C223A25645C2C7D5D5C2C7DCE
:101C00007D222C302C300D0A000000002C1C000816
:101C1000000000201C00000064170008481C000899
:101C20001C00002094080000741700080100000048
:101C300010000000000000000024F400000000007C
:081C400000000000000000009C
:0400000508000131BD
:00000001FF
